:100000000C942A000C943F000C943F000C943F0089
:100010000C943F000C943F000C943F000C943F0064
:100020000C943F000C943F000C943F000C943F0054
:100030000C943F000C943F000C943F000C943F0044
:100040000C943F000C943F000C943F000C943F0034
:100050000C943F0011241FBECFE5D8E0DEBFCDBF1A
:1000600010E0A0E6B0E0E4E3FAE002C005900D92F3
:10007000AE36B107D9F70E94E4030C9418050C942E
:100080000000BB9A9DE693BF90E0A0E0B0E0BC0109
:10009000CD012FEF30E040E050E00E947F0424E6E5
:1000A00030E040E050E00E94B1042CBF0895683079
:1000B00008F070C0843008F06DC0813009F18130E3
:1000C00030F08230B1F1833009F064C04BC0413070
:1000D00059F42AB381E090E002C0880F991F6A9515
:1000E000E2F7282B2ABB08952AB381E090E002C0F2
:1000F000880F991F6A95E2F7809582238ABB08953D
:10010000413059F427B381E090E002C0880F991F75
:100110006A95E2F7282B27BB089527B381E090E08A
:1001200002C0880F991F6A95E2F78095822387BBEA
:100130000895413059F424B381E090E002C0880F63
:10014000991F6A95E2F7282B24BB089524B381E018
:1001500090E002C0880F991F6A95E2F7809582238C
:1001600084BB0895413059F421B381E090E002C08E
:10017000880F991F6A95E2F7282B21BB089521B3B8
:1001800081E090E002C0880F991F6A95E2F78095A0
:10019000822381BB0895683008F070C0843008F075
:1001A0006DC0813009F1813030F08230B1F183309F
:1001B00009F064C04BC0413059F42BB381E090E0AA
:1001C00002C0880F991F6A95E2F7282B2BBB089570
:1001D0002BB381E090E002C0880F991F6A95E2F787
:1001E000809582238BBB0895413059F428B381E078
:1001F00090E002C0880F991F6A95E2F7282B28BB70
:10020000089528B381E090E002C0880F991F6A9595
:10021000E2F78095822388BB0895413059F425B3D5
:1002200081E090E002C0880F991F6A95E2F7282BC1
:1002300025BB089525B381E090E002C0880F991F87
:100240006A95E2F78095822385BB0895413059F481
:1002500022B381E090E002C0880F991F6A95E2F70F
:10026000282B22BB089522B381E090E002C0880FC2
:10027000991F6A95E2F78095822382BB08956830C2
:10028000D0F48430C0F4813049F0813028F08230DD
:1002900039F0833081F406C089B305C086B303C04A
:1002A00083B301C080B390E002C0959587956A95AD
:1002B000E2F78170089580E00895843080F4813001
:1002C00049F0813028F0823039F0833041F406C0A3
:1002D0006ABB089567BB089564BB089561BB089528
:1002E000843080F4813049F0813028F0823039F058
:1002F000833041F406C06BBB089568BB089565BBAD
:10030000089562BB0895843088F4813049F08130CB
:1003100028F0823039F0833049F406C089B308955B
:1003200086B3089583B3089580B3089580E0089557
:1003300087B3836087BBBB9A8BE683BF88B38C7F10
:1003400088BB1CBE089581B3806681BB8F9A8CE602
:1003500085BD82B38F7982BB13BC0895282F653683
:1003600008F064E68FEF689FC001112464E670E036
:100370000E949E046CBF213019F0223039F403C072
:10038000C09AC1980895C19AC098089588B38C7F87
:1003900088BB0895282F653608F064E68FEF689FC4
:1003A000C001112464E670E00E949E0463BD213008
:1003B00019F0223039F403C0959A96980895969AC8
:1003C0009598089582B38F7982BB0895A098089577
:1003D000A1980895A2980895A3980895A4980895BF
:1003E000A5980895A6980895A798089583B3817055
:1003F000089583B390E0969587958170089583B3AF
:1004000090E096958795969587958170089583B32A
:1004100090E043E0969587954A95E1F781700895BD
:1004200083B390E054E0969587955A95E1F78170F3
:10043000089583B390E065E0969587956A95E1F716
:100440008170089583B390E076E0969587957A95CC
:10045000E1F78170089583B3881F8827881F089566
:10046000DF92EF92FF920F931F93D82E80E061E00E
:1004700041E00E94CB00E0EAEE2EEFE0FE2EC70145
:100480000197F1F780E062E041E00E94CB00C701F4
:100490000197F1F70D2D10E0A8014071507074E044
:1004A000559547957A95E1F780E063E00E94CB008F
:1004B000A8014072507065E0559547956A95E1F73F
:1004C00080E064E00E94CB00A8014074507036E0E8
:1004D000559547953A95E1F780E065E00E94CB009D
:1004E0004D2D441F4427441F80E066E00E94CB004E
:1004F000C7010197F1F780E062E040E00E94CB0085
:10050000C7010197F1F780E062E041E00E94CB0073
:10051000C7010197F1F781E0D82280E063E04D2D1B
:100520000E94CB00A801427050705595479580E01D
:1005300064E00E94CB00A801447050705595479527
:100540005595479580E065E00E94CB0008701070DB
:1005500083E0159507958A95E1F780E066E0402FE6
:100560000E94CB00C7010197F1F780E062E040E014
:100570000E94CB00C7010197F1F71F910F91FF90E7
:10058000EF90DF9008951F93CF93DF93EC0110E07D
:1005900003C00E9430021F5FFE01E10FF11D808148
:1005A0008823B9F7DF91CF911F9108950F931F937F
:1005B000DF93CF93CDB7DEB760970FB6F894DEBF69
:1005C0000FBECDBF8E010F5F1F4FB8014AE050E054
:1005D0000E94E704C8010E94C30260960FB6F89417
:1005E000DEBF0FBECDBFCF91DF911F910F91089558
:1005F000DF92EF92FF920F931F93D82E80E061E07D
:1006000040E00E94CB0030EAE32E3FE0F32EC7012A
:100610000197F1F780E062E041E00E94CB00C70162
:100620000197F1F70D2D10E0A8014071507024E002
:10063000559547952A95E1F780E063E00E94CB004D
:10064000A8014072507095E0559547959A95E1F74D
:1006500080E064E00E94CB00A8014074507086E006
:10066000559547958A95E1F780E065E00E94CB00BB
:100670004D2D441F4427441F80E066E00E94CB00BC
:10068000C7010197F1F780E062E040E00E94CB00F3
:10069000C7010197F1F780E062E041E00E94CB00E2
:1006A000C7010197F1F781E0D82280E063E04D2D8A
:1006B0000E94CB00A801427050705595479580E08C
:1006C00064E00E94CB00A801447050705595479596
:1006D0005595479580E065E00E94CB00087010704A
:1006E000F3E015950795FA95E1F780E066E0402F75
:1006F0000E94CB00C7010197F1F780E062E040E083
:100700000E94CB00C7010197F1F71F910F91FF9055
:10071000EF90DF90089581E00E94F8020895813003
:1007200039F0813050F0823029F0833031F404C048
:10073000605C03C0605F01C0605B862F80680E94C0
:10074000F80208950F931F938A010E948F03C80136
:100750000E94C3021F910F91089580E061E041E083
:100760000E94570080E062E041E00E94570088EC60
:1007700090E020E931E0F9013197F1F70197D9F7DD
:1007800080E063E041E00E94570080E064E041E0E7
:100790000E94570080E065E041E00E94570080E041
:1007A00066E041E00E94570083E30E94F80282E382
:1007B0000E94F80288E20E94F8028CE00E94F8028F
:1007C00081E00E94F8020895BF92CF92DF92EF92EB
:1007D000FF920F931F93CF93DF930E94AD030E946C
:1007E000E6010E94E8010E94EA010E94EC010E94D9
:1007F000EE010E94F0010E94F2010E94F4010E94A9
:1008000098010E94A30180E690E00E94C302C0E923
:10081000D1E00E94F601182F0E94F901F82E0E94E3
:10082000FF01D82E0E940702E82E0E941002B82E67
:100830000E941902C82E0E942202082F0E942B0239
:10084000682F112381F0FF2071F0002349F08823E5
:1008500039F081E064E60E94CA0181E064E64CC0A0
:1008600041E050E002C040E050E08E2D90E02D2DA0
:1008700030E0822B932B842B952B892B81F081E008
:1008800064E60E94CA0182E060E00E94AE0188EB4B
:100890009BE0FE013197F1F70197D9F7BACF00231A
:1008A00019F440E050E008C090E0662309F491E0BC
:1008B00081E09827492F50E08C2D90E02B2D30E0DF
:1008C000822B932B842B952B892B81F082E060E087
:1008D0000E94CA0181E064E60E94AE0188EB9BE0C1
:1008E000FE013197F1F70197D9F793CF80E060E0EF
:1008F0000E94CA0180E060E00E94AE018ACF629F40
:10090000D001739FF001829FE00DF11D649FE00D07
:10091000F11D929FF00D839FF00D749FF00D659F68
:10092000F00D9927729FB00DE11DF91F639FB00D67
:10093000E11DF91FBD01CF011124089597FB092E78
:1009400007260AD077FD04D02ED006D000201AF456
:10095000709561957F4F0895F6F7909581959F4F1B
:100960000895A1E21A2EAA1BBB1BFD010DC0AA1FF0
:10097000BB1FEE1FFF1FA217B307E407F50720F008
:10098000A21BB30BE40BF50B661F771F881F991F83
:100990001A9469F760957095809590959B01AC01CC
:1009A000BD01CF010895AA1BBB1B51E107C0AA1FBF
:1009B000BB1FA617B70710F0A61BB70B881F991F00
:1009C0005A95A9F780959095BC01CD010895FB013A
:1009D0009F01E8944230C4F04532B4F44A3029F41F
:1009E00097FB1EF4909581959F4F642F77270E9467
:1009F000D304805D8A330CF0895D8193CB0100972D
:100A0000A1F716F45DE251931082C9010C94080518
:100A1000DC01FC01672F71917723E1F7329704C065
:100A20007C916D9370836291AE17BF07C8F30895F0
:040A3000F894FFCF68
:0E0A34006D617A61727974615F7465616D0045
:00000001FF
