:100000000C942A000C94D5030C9447000C944700E0
:100010000C9447000C9447000C9447000C94470044
:100020000C9447000C9447000C9447000C94470034
:100030000C9447000C9447000C9447000C94470024
:100040000C9447000C9447000C9447000C94470014
:100050000C94470011241FBECFE5D8E0DEBFCDBF12
:1000600011E0A0E6B0E0ECE5FAE102C005900D92E7
:10007000AE30B107D9F718E0AEE0B1E001C01D9293
:10008000A631B107E1F70E9470080C942C0D0C9476
:1000900000008F929F92AF92BF92CF92DF92EF9229
:1000A000FF920F931F93DF93CF93CDB7DEB72897BF
:1000B0000FB6F894DEBF0FBECDBF26E233E080E07E
:1000C00090E04FEF0BC04193E217F307E1F7019681
:1000D0009F01205F3F4F8031910549F0FC01B4E062
:1000E000EE0FFF1FBA95E1F7EA5EFC4FECCF97E009
:1000F00099839A8388E08B838C839D838E839F83EF
:10010000888740E050E0BE016F5F7F4F9E012B5F0C
:100110003F4FFB01E40FF51F8081F901E40FF51F4C
:100120009081E82FF0E0A4E0EE0FFF1FAA95E1F721
:10013000E90FF11DEA5EFC4F1082FA01EA5EFA4F08
:100140008083FA01EA5EFD4F90834F5F5F4F44303A
:100150005105F9F6CC24DD24F601EA5EFA4F9081D0
:10016000F601EA5EFD4F8081EE24FF24892E99245A
:10017000A82EBB24840194E0000F111F9A95E1F78B
:100180000A0D1B1D0A5E1C4FF701EA50FF4FA081AC
:10019000B181A80DB91DF701E250FF4F0190F08128
:1001A000E02DA031B10558F5B5016E0F7F1F77FD29
:1001B00026C0603171051CF59D0184E0220F331FBC
:1001C0008A95E1F7260F371FF901EA5EFB4F808120
:1001D0008823A9F42A5E3C4FF90180818F3F79F48E
:1001E000F80180818F5FF9018083FA01EA5EFA4F9E
:1001F000A083FA01EA5EFD4F60834F5F5F4F82E0AC
:1002000090E0E80EF91E98E0E916F10409F0BCCF81
:100210000894C11CD11CC416D50608F49DCF28969D
:100220000FB6F894DEBF0FBECDBFCF91DF911F9107
:100230000F91FF90EF90DF90CF90BF90AF909F9085
:100240008F9008952F923F924F925F926F927F927C
:100250008F929F92BF92CF92DF92EF92FF920F9375
:100260001F93DF93CF93CDB7DEB7C250D4400FB604
:10027000F894DEBF0FBECDBFCF5FDB4F998388837D
:10028000C150D4401B011092150110921401FC01C1
:10029000A4E0EE0FFF1FAA95E1F7E60FF71FEA5E55
:1002A000FC4F80818F3F09F498C04E010894811C57
:1002B000911CF1E0CF2EF2E0DF2ECC0EDD1E2401EA
:1002C0003601EE24FF2400E010E060E070E059C049
:1002D000BB2440E050E09801E4E0220F331FEA9590
:1002E000E1F7260F371F2A5E3C4FFA01EA50FF4F15
:1002F000A081B181A00FB11FFA01E250FF4F019020
:10030000F081E02DA031B105A8F4E60FF71FF7FD4D
:1003100011C0E031F10574F494E0AA0FBB1F9A9567
:10032000E1F7AE0FBF1FAA5EBC4F9C91D9018C9123
:10033000981738F0B3944E5F5F4FB4E0BB16A9F640
:100340002EC0EB2DF0E0EE0FFF1FDF01AA50BF4FD4
:100350008D919C91080F191FD2010D931D932D01B2
:10036000E250FF4F80819181680F791FF301619303
:1003700071933F01F701EA5EF94FB0820894E11CE6
:10038000F11CCF5FDB4F88819981C150D4400817A1
:10039000190709F09DCF6215730509F099CFF09206
:1003A0001501E092140120E030E014C0F901EA5E8A
:1003B000FE4FD4018C918083F901EA5EF84FD6019B
:1003C0008C9180832F5F3F4FE2E0F0E08E0E9F1E06
:1003D000CE0EDF1E2E153F0548F3CE5FDB4F0FB666
:1003E000F894DEBF0FBECDBFCF91DF911F910F916B
:1003F000FF90EF90DF90CF90BF909F908F907F9075
:100400006F905F904F903F902F9008951F93CF93E0
:10041000DF9310911301C0910F01D09110016091F1
:100420001101709112015FEF40E020E030E0F9012E
:10043000EA50FF4F808191818C0F9D1FF901E2509E
:10044000FF4F0190F081E02D80319105E0F4E60F3F
:10045000F71FF7FD18C0E031F105ACF4DC0184E0D2
:10046000AA0FBB1F8A95E1F7AE0FBF1FFD01EA5E21
:10047000FB4F8081882339F4AA5EBC4FEC91E517CD
:1004800010F4142F01C0E52F4F5F2E5F3F4F443013
:1004900011F05E2FCCCFEF3F39F40E94170880E6B1
:1004A00090E00E944F07FFCF812FDF91CF911F91E6
:1004B000089581E064E60E94500681E064E60E94AF
:1004C0006C0680E29EE420E931E0F9013197F1F712
:1004D0000197D9F781E060E00E94500681E060E07A
:1004E0000E946C0680ED97E020E931E0F901319738
:1004F000F1F70197D9F7E0911301F0E0EE0FFF1F3C
:10050000DF01AA50BF4F80910F01909110012D91F2
:100510003C91820F931F9093100180930F01E25042
:10052000FF4F809111019091120120813181820F42
:10053000931F9093120180931101089590911301DC
:1005400024E030E0291B3109A901480F511DCA01DF
:1005500064E070E00E94CD09882309F46BC081300B
:10056000D9F460E00E94500681E064E60E946C06C7
:1005700080E060E04FE650E00E942E0888EF9AE2AB
:1005800020E931E0F9013197F1F70197D9F780912E
:10059000130190E0019639C08330E1F481E064E614
:1005A0000E94500681E060E00E946C0680E060E0FE
:1005B00047E750E00E942E0888EF9AE220E931E0F8
:1005C000F9013197F1F70197D9F78091130190E084
:1005D00003961BC081E064E60E94500682E064E658
:1005E0000E946C0680E060E04FE750E00E942E0819
:1005F00080E29EE420E931E0F9013197F1F70197BB
:10060000D9F78091130190E00296837090708093E7
:10061000130181E060E00E94500681E060E00E94EA
:100620006C0680ED97E020E931E0F9013197F1F7B0
:100630000197D9F708956F927F928F929F92AF9210
:10064000BF92CF92DF92EF92FF921F93DF93CF93EF
:10065000CDB7DEB761970FB6F894DEBF0FBECDBF42
:100660000E94170885E890E00E944F0788EB9BE006
:1006700020E931E0F9013197F1F70197D9F7F894C2
:100680001092100110920F0110921201109211019C
:1006900010921301EE24FF246E010894C11CD11C9A
:1006A00041E1642E712C32E9832E30E0932E20E953
:1006B000A22E21E0B22E45C0F701EA5EF94F10816B
:1006C000812F0E949E020E9459028DB79EB70C97FF
:1006D0000FB6F8949EBF0FBE8DBFEDB7FEB7319633
:1006E000ADB7BEB71296DC92CE921197738262823A
:1006F0009582848280910F01909110019783868367
:100700008091110190911201918780871287138641
:100710000E94370A8DB79EB70C960FB6F8949EBF0D
:100720000FBE8DBF81E060E0A6010E942E0880E22E
:1007300093E0F5013197F1F70197D9F70894E11C9F
:10074000F11C8091140190911501E816F90608F446
:10075000B3CF81E060E00E94500681E060E00E943B
:100760006C0680E060E043EA50E00E942E0888E8D2
:1007700093E120E931E0F9013197F1F70197D9F7D9
:10078000789461960FB6F894DEBF0FBECDBFCF91BF
:10079000DF911F91FF90EF90DF90CF90BF90AF90CF
:1007A0009F908F907F906F9008951F920F920FB639
:1007B0000F9211242F933F934F935F936F937F93E7
:1007C0008F939F93AF93BF93EF93FF9380910E010D
:1007D000882311F00E941B03FF91EF91BF91AF910D
:1007E0009F918F917F916F915F914F913F912F9149
:1007F0000F900FBE0F901F9018952F923F924F921F
:100800005F926F927F928F929F92AF92BF92CF92A0
:10081000DF92EF92FF920F931F93CF93DF93A091FC
:1008200013012A2F30E0F9013396E370F070D901FB
:100830001196A370B07020900F0130901001EE0F50
:10084000FF1FCF018A509F4FEC01E880F980009193
:10085000110110911201E250FF4FC080D180AA0F08
:10086000BB1FFD01EA50FF4FA080B180A250BF4FD7
:100870008D909C90D901AA0FBB1FFD01EA50FF4F3C
:1008800060807180A250BF4F4D905C900E94940692
:10089000882321F40E949706882311F1C701820D55
:1008A000931D97FD1DC080319105D4F4F601E00F32
:1008B000F11FF7FD15C0E031F10594F4DC0174E09F
:1008C000AA0FBB1F7A95E1F7AE0FBF1FAA5EBB4F01
:1008D0008C91813029F081E08C93FF24F39401C046
:1008E000FF240E94AE06882321F40E94B7068823C5
:1008F00009F1C501820D931D97FD1CC08031910542
:10090000CCF4D401A00FB11FB7FD14C0A031B105C4
:100910008CF4FC0164E0EE0FFF1F6A95E1F7EA0F2B
:10092000FB1FEA5EFB4F8081813021F081E08083F4
:10093000FF24F3940E949D06882321F40E94A506BB
:10094000882309F1C301820D931D97FD1CC08031DE
:100950009105CCF4D201A00FB11FB7FD14C0A03196
:10096000B1058CF4FC0154E0EE0FFF1F5A95E1F73E
:10097000EA0FFB1FEA5EFB4F8081813021F081E0AE
:100980008083FF24F3948F2DDF91CF911F910F91DE
:10099000FF90EF90DF90CF90BF90AF909F908F909F
:1009A0007F906F905F904F903F902F900895BB9AEB
:1009B0009DE693BF90E0A0E0B0E0BC01CD012FEF39
:1009C00030E040E050E00E94AE0924E630E040E034
:1009D00050E00E94E0092CBF08958A98929A8BB744
:1009E00080648BBF85B7826085BF85B78E7F85BFEA
:1009F0000895683008F070C0843008F06DC0813010
:100A000009F1813030F08230B1F1833009F064C0F7
:100A10004BC0413059F42AB381E090E002C0880F06
:100A2000991F6A95E2F7282B2ABB08952AB381E023
:100A300090E002C0880F991F6A95E2F780958223A3
:100A40008ABB0895413059F427B381E090E002C099
:100A5000880F991F6A95E2F7282B27BB089527B3C3
:100A600081E090E002C0880F991F6A95E2F78095B7
:100A7000822387BB0895413059F424B381E090E08C
:100A800002C0880F991F6A95E2F7282B24BB0895AE
:100A900024B381E090E002C0880F991F6A95E2F7C5
:100AA0008095822384BB0895413059F421B381E0BD
:100AB00090E002C0880F991F6A95E2F7282B21BBAE
:100AC000089521B381E090E002C0880F991F6A95D4
:100AD000E2F78095822381BB0895683008F070C0EA
:100AE000843008F06DC0813009F1813030F08230FF
:100AF000B1F1833009F064C04BC0413059F42BB3DD
:100B000081E090E002C0880F991F6A95E2F7282BD8
:100B10002BBB08952BB381E090E002C0880F991F92
:100B20006A95E2F7809582238BBB0895413059F492
:100B300028B381E090E002C0880F991F6A95E2F720
:100B4000282B28BB089528B381E090E002C0880FCD
:100B5000991F6A95E2F78095822388BB08954130FA
:100B600059F425B381E090E002C0880F991F6A957F
:100B7000E2F7282B25BB089525B381E090E002C061
:100B8000880F991F6A95E2F78095822385BB0895A7
:100B9000413059F422B381E090E002C0880F991FE0
:100BA0006A95E2F7282B22BB089522B381E090E0FA
:100BB00002C0880F991F6A95E2F78095822382BB55
:100BC00008956830D0F48430C0F4813049F0813029
:100BD00028F0823039F0833081F406C089B305C033
:100BE00086B303C083B301C080B390E002C0959583
:100BF00087956A95E2F78170089580E008958430C2
:100C000080F4813049F0813028F0823039F083302F
:100C100041F406C06ABB089567BB089564BB08959C
:100C200061BB0895843080F4813049F0813028F030
:100C3000823039F0833041F406C06BBB089568BB45
:100C4000089565BB089562BB0895843088F48130AF
:100C500049F0813028F0823039F0833049F406C001
:100C600089B3089586B3089583B3089580B3089532
:100C700080E0089587B3836087BBBB9A8BE683BF10
:100C800088B38C7F88BB1CBE089581B3806681BB0E
:100C90008F9A8CE685BD82B38F7982BB13BC089591
:100CA000282F653608F064E68FEF689FC001112495
:100CB00064E670E00E94CD096CBF213019F022304B
:100CC00039F403C0C09AC1980895C19AC098089594
:100CD00088B38C7F88BB0895282F653608F064E6BA
:100CE0008FEF689FC001112464E670E00E94CD0977
:100CF00063BD213019F0223039F403C0959A9698DB
:100D00000895969A9598089582B38F7982BB089535
:100D1000A0980895A1980895A2980895A598089577
:100D2000A6980895A798089583B38170089583B312
:100D300090E0969587958170089583B390E096959D
:100D40008795969587958170089583B390E045E0E7
:100D5000969587954A95E1F78170089583B390E061
:100D600056E0969587955A95E1F78170089583B37B
:100D7000881F8827881F0895DF92EF92FF920F93B4
:100D80001F93D82E80E061E041E00E946D05E0EA0B
:100D9000EE2EEFE0FE2EC7010197F1F780E062E052
:100DA00041E00E946D05C7010197F1F70D2D10E09C
:100DB000A8014071507074E0559547957A95E1F718
:100DC00080E063E00E946D05A8014072507065E00C
:100DD000559547956A95E1F780E064E00E946D05BE
:100DE000A8014074507036E0559547953A95E1F763
:100DF00080E065E00E946D054D2D441F4427441F8F
:100E000080E066E00E946D05C7010197F1F780E080
:100E100062E040E00E946D05C7010197F1F780E0B4
:100E200062E041E00E946D05C7010197F1F781E0A2
:100E3000D82280E063E04D2D0E946D05A80142702C
:100E400050705595479580E064E00E946D05A801BB
:100E500044705070559547955595479580E065E0ED
:100E60000E946D050870107083E0159507958A95AE
:100E7000E1F780E066E0402F0E946D05C701019711
:100E8000F1F780E062E040E00E946D05C701019744
:100E9000F1F71F910F91FF90EF90DF9008951F934E
:100EA000CF93DF93EC0110E003C00E94BC061F5FEC
:100EB000FE01E10FF11D80818823B9F7DF91CF9109
:100EC0001F9108950F931F93DF93CF93CDB7DEB794
:100ED00060970FB6F894DEBF0FBECDBF8E010F5FD7
:100EE0001F4FB8014AE050E00E94160AC8010E9454
:100EF0004F0760960FB6F894DEBF0FBECDBFCF91FF
:100F0000DF911F910F910895DF92EF92FF920F935F
:100F10001F93D82E80E061E040E00E946D0530EA2A
:100F2000E32E3FE0F32EC7010197F1F780E062E086
:100F300041E00E946D05C7010197F1F70D2D10E00A
:100F4000A8014071507024E0559547952A95E1F726
:100F500080E063E00E946D05A8014072507095E04A
:100F6000559547959A95E1F780E064E00E946D05FC
:100F7000A8014074507086E0559547958A95E1F731
:100F800080E065E00E946D054D2D441F4427441FFD
:100F900080E066E00E946D05C7010197F1F780E0EF
:100FA00062E040E00E946D05C7010197F1F780E023
:100FB00062E041E00E946D05C7010197F1F781E011
:100FC000D82280E063E04D2D0E946D05A80142709B
:100FD00050705595479580E064E00E946D05A8012A
:100FE00044705070559547955595479580E065E05C
:100FF0000E946D0508701070F3E015950795FA953D
:10100000E1F780E066E0402F0E946D05C70101977F
:10101000F1F780E062E040E00E946D05C7010197B2
:10102000F1F71F910F91FF90EF90DF90089581E00D
:101030000E9484070895813039F0813050F0823069
:1010400029F0833031F404C0605C03C0605F01C0EC
:10105000605B862F80680E94840708950F931F931A
:101060008A010E941B08C8010E944F071F910F911F
:10107000089580E061E041E00E94F90480E062E0D0
:1010800041E00E94F90488EC90E020E931E0F901A8
:101090003197F1F70197D9F780E063E041E00E94D2
:1010A000F90480E064E041E00E94F90480E065E03A
:1010B00041E00E94F90480E066E041E00E94F9040A
:1010C00083E30E94840782E30E94840788E20E94EF
:1010D00084078CE00E94840781E00E9484070895C1
:1010E0008F929F92AF92BF92CF92DF92EF92FF9238
:1010F0000F931F93DF93CF93CDB7DEB769970FB6EA
:10110000F894DEBF0FBECDBF0E9439080E9488064A
:101110000E948A060E948C060E948E060E949006FB
:101120000E9492060E943A060E9445060E94ED0423
:1011300078948FEA90E00E944F0780E797E120E9DA
:1011400031E0F9013197F1F70197D9F70E941708BB
:1011500026E234E080E090E00BC01192E217F30742
:10116000E1F701969F01205F3F4F8031910549F0E3
:10117000FC0174E0EE0FFF1F7A95E1F7EA5EFB4F8A
:10118000ECCF1092100110920F01109212011092E8
:101190001101109213010E9449007E010894E11C84
:1011A000F11C8E01075F1F4F61E1862E912C5DEBD4
:1011B000A52E50E0B52E40E9C42E41E0D42E0E9469
:1011C000FD03882311F00E9449000E9406020E943C
:1011D0009E02E0911301F0E0EE0FFF1FDF01AA5025
:1011E000BF4F0D90BC91A02D80910F0190911001E7
:1011F000A80FB91F8091110190911201E250FF4F89
:101200000190F081E02DA031B105B0F4E80FF91F95
:10121000F7FD12C0E031F1057CF424E0AA0FBB1FFA
:101220002A95E1F7AE0FBF1FAA5EBB4F8C918823B2
:1012300019F40E94590204C00E94FD030E94490053
:10124000D701E6E0F1E088E001900D928150E1F7EE
:101250008DB79EB70C970FB6F8949EBF0FBE8DBF8B
:10126000ADB7BEB71196EDB7FEB7128301831396E3
:101270009C928E9212971596BC92AE921497809182
:101280000F019091100117969C938E931697809161
:1012900011019091120119969C938E931897E091E9
:1012A0001301F0E0EE0FFF1FEE0DFF1D8081918115
:1012B0001B969C938E931A970E94370A8DB79EB700
:1012C0000C960FB6F8949EBF0FBE8DBF81E060E014
:1012D000A8010E942E0880EB94E0F6013197F1F707
:1012E0000197D9F720910F0130911001C90107979B
:1012F000029708F064CF6091110170911201CB0147
:101300000797029708F05BCFF90184E0EE0FFF1F0B
:101310008A95E1F7E60FF71FEA5EFB4F808188238D
:1013200009F04DCFC9010E94220180E060E04CEC41
:1013300050E00E942E0881E080930E0100E911E048
:1013400080E060E04DED50E00E942E0888E893E1D7
:10135000F8013197F1F70197D9F7F2CF629FD001E9
:10136000739FF001829FE00DF11D649FE00DF11D60
:10137000929FF00D839FF00D749FF00D659FF00D0F
:101380009927729FB00DE11DF91F639FB00DE11DFC
:10139000F91FBD01CF011124089597FB092E0726DF
:1013A0000AD077FD04D02ED006D000201AF4709514
:1013B00061957F4F0895F6F7909581959F4F089519
:1013C000A1E21A2EAA1BBB1BFD010DC0AA1FBB1F49
:1013D000EE1FFF1FA217B307E407F50720F0A21BBB
:1013E000B30BE40BF50B661F771F881F991F1A9428
:1013F00069F760957095809590959B01AC01BD0152
:10140000CF010895AA1BBB1B51E107C0AA1FBB1F38
:10141000A617B70710F0A61BB70B881F991F5A9580
:10142000A9F780959095BC01CD010895FB019F011E
:10143000E8944230C4F04532B4F44A3029F497FBC2
:101440001EF4909581959F4F642F77270E94020A82
:10145000805D8A330CF0895D8193CB010097A1F701
:1014600016F45DE251931082C9010C945B0CAEE05E
:10147000B0E0EDE3FAE00C94030D0D891E898F892D
:10148000988D97FF02C080E090E801979E838D833E
:101490001A83098386E08C839E01255E3F4FCE012F
:1014A0000196698D7A8DA9010E94680A4D815E813D
:1014B00057FD0AC02F813885421753070CF49A0153
:1014C000020F131FF80110822E96E4E00C941F0DFA
:1014D000ABE0B0E0EEE6FAE00C94F50C3C012B0139
:1014E0005A01FC0117821682838181FD03C06FEFD0
:1014F0007FEFC6C19AE0892E1E010894211C311C81
:10150000F3012381F20123FD859123FF81912F01B6
:10151000882309F4B2C1853239F423FD859123FF74
:1015200081912F01853229F490E0B3010E946B0C68
:10153000E7CF982FFF24EE249924FFE1FF15D0F088
:101540009B3269F09C3228F4903259F0933291F436
:101550000EC09D3249F0903369F441E024C052E05E
:10156000F52A84E0F82A28C098E0F92A25C0E0E1AD
:10157000FE2A22C0F7FC29C0892F80538A3070F4DC
:10158000F6FE05C0989C902C1124980E15C0E89C7E
:10159000E02C1124E80EF0E2FF2A0EC09E3229F45E
:1015A000F6FC6BC140E4F42A07C09C3619F450E8FD
:1015B000F52A02C0983649F4F20123FD959123FFE4
:1015C00091912F01992309F0B8CF892F8554833049
:1015D00018F08052833038F444E050E0A40EB51E79
:1015E0005FE359830FC0933631F0933779F0933529
:1015F00009F056C020C0F5018081898342E050E0A7
:10160000A40EB51E610101E010E012C0F501C0801A
:10161000D180F6FC03C06FEF7FEF02C0692D70E050
:1016200042E050E0A40EB51EC6010E94500C8C0191
:101630005FE7F52214C0F501C080D180F6FC03C03D
:101640006FEF7FEF02C0692D70E042E050E0A40E22
:10165000B51EC6010E94450C8C0150E8F52AF3FE28
:1016600007C01AC080E290E0B3010E946B0CEA94BC
:101670008E2D90E008171907A8F30EC0F601F7FCAD
:101680008591F7FE81916F0190E0B3010E946B0C90
:10169000E110EA94015010400115110579F7EAC0F4
:1016A000943611F0993669F5F7FE08C0F5012081EE
:1016B00031814281538184E090E00AC0F50180814C
:1016C00091819C01442737FD4095542F82E090E0A2
:1016D000A80EB91E9FE6F92257FF09C05095409504
:1016E000309521953F4F4F4F5F4FE0E8FE2ACA01EA
:1016F000B901A1012AE030E00E94970CD82ED2183F
:1017000040C0953729F41F2D1F7E2AE030E01DC010
:101710001F2D197F9F3661F0903720F4983509F01E
:10172000ACC00FC0903739F0983709F0A6C004C09C
:1017300028E030E00AC0106114FD146020E130E0C0
:1017400004C014FD166020E132E017FF08C0F50167
:10175000608171818281938144E050E008C0F5018D
:1017600080819181BC0180E090E042E050E0A40ED5
:10177000B51EA1010E94970CD82ED2188FE7F82E23
:10178000F122F6FE0BC05EEFF522D91438F4F4FE18
:1017900007C0F2FC05C08FEEF82202C01D2D01C06B
:1017A000192DF4FE0DC0FE01ED0DF11D8081803379
:1017B00019F499EEF92208C01F5FF2FE05C003C0BC
:1017C0008F2D867809F01F5F0F2DF3FC14C0F0FEFB
:1017D0000FC01E1510F09D2C0BC09D2C9E0C911A55
:1017E0001E2D06C080E290E0B3010E946B0C1F5FCB
:1017F0001E15C0F304C01E1510F4E11A01C0EE243A
:1018000004FF0FC080E390E0B3010E946B0C02FF65
:101810001DC001FD03C088E790E00EC088E590E0A0
:101820000BC0802F867891F001FF02C08BE201C0CF
:1018300080E2F7FC8DE290E0B3010E946B0C06C0E1
:1018400080E390E0B3010E946B0C9A94D914C0F32A
:10185000DA94F101ED0DF11D808190E0B3010E9459
:101860006B0CDD20A9F706C080E290E0B3010E9476
:101870006B0CEA94EE20C1F743CEF30166817781C9
:10188000CB012B96E2E10C94110DFC010590615007
:1018900070400110D8F7809590958E0F9F1F089586
:1018A000FC016150704001900110D8F7809590952F
:1018B0008E0F9F1F0895DC01FC01672F7191772324
:1018C000E1F7329704C07C916D9370836291AE17FB
:1018D000BF07C8F308950F931F93CF93DF938C0135
:1018E000EB018B8181FF1BC082FF0DC02E813F81E8
:1018F0008C819D812817390764F4E881F98101936F
:10190000F983E88306C0E885F985802F0995892B3E
:1019100031F48E819F8101969F838E8302C00FEFE9
:101920001FEFC801DF91CF911F910F910895FA0128
:10193000AA27283051F1203181F1E8946F936E7F0E
:101940006E5F7F4F8F4F9F4FAF4FB1E03ED0B4E0FF
:101950003CD0670F781F891F9A1FA11D680F791F40
:101960008A1F911DA11D6A0F711D811D911DA11D51
:1019700020D009F468943F912AE0269F1124301961
:10198000305D3193DEF6CF010895462F4770405DFC
:101990004193B3E00FD0C9F7F6CF462F4F70405DAB
:1019A0004A3318F0495D31FD4052419302D0A9F706
:1019B000EACFB4E0A6959795879577956795BA9500
:1019C000C9F700976105710508959B01AC010A2EC6
:1019D00006945795479537952795BA95C9F7620F9D
:1019E000731F841F951FA01D08952F923F924F9241
:1019F0005F926F927F928F929F92AF92BF92CF929F
:101A0000DF92EF92FF920F931F93CF93DF93CDB7A7
:101A1000DEB7CA1BDB0B0FB6F894DEBF0FBECDBF1F
:101A200009942A88398848885F846E847D848C84F0
:101A30009B84AA84B984C884DF80EE80FD800C81F9
:101A40001B81AA81B981CE0FD11D0FB6F894DEBFDC
:0C1A50000FBECDBFED010895F894FFCF4C
:101A5C002053595354454D204552524F522000208B
:101A6C0059454D454E20002053484D414C200020F7
:101A7C00424C4620005245504C4159494E472E2E5F
:101A8C002E00583A25326420593A25326420443AC3
:101A9C00256400205041544820444F4E45200020DE
:101AAC0020454C2D4D415A415259544100583A252C
:101ABC00326420593A2532642025730020202020DE
:101ACC002020474F414C2020202020200050524500
:101ADC005353205245504C415900582B00592D005E
:101AEC00582D00592B0001000000FFFF00000000E2
:0E1AFC00FFFF00000100EA00ED00F000F30023
:00000001FF
