:100000000C942A000C9447000C9447000C94470071
:100010000C9447000C9447000C9447000C94470044
:100020000C9447000C9447000C9447000C94470034
:100030000C9447000C9447000C9447000C94470024
:100040000C9447000C9447000C9447000C94470014
:100050000C94470011241FBECFE5D8E0DEBFCDBF12
:1000600010E0A0E6B0E0E6EDFCE102C005900D92E4
:10007000A038B107D9F715E0A0E8B0E001C01D92A3
:10008000A23BB107E1F70E94B4090C94690E0C94ED
:1000900000008091AC04813029F090E08091A804A8
:1000A000813009F491E0892F08958091A604813070
:1000B00029F090E08091AA04813009F491E0892F21
:1000C00008958091A704813029F090E08091A904DF
:1000D000813009F491E0892F0895FB0124E0EE0FAF
:1000E000FF1F2A95E1F7E80FF91FEB55FC4F8081C0
:1000F00090E00895FB0134E0EE0FFF1F3A95E1F721
:10010000E80FF91FEB55FC4F81E080830895FB0158
:1001100054E0EE0FFF1F5A95E1F7E80FF91FE35582
:10012000FB4F40830895FB0164E0EE0FFF1F6A95CB
:10013000E1F7E80FF91FE355FB4F80810895FB01BC
:1001400074E0EE0FFF1F7A95E1F7E80FF91FEB550A
:10015000FD4F40830895FB01A4E0EE0FFF1FAA9519
:10016000E1F7E80FF91FEB55FD4F8081089520E07E
:1001700030E04FEF0AC04193019680319105D9F7E5
:100180002F5F3F4F2031310559F0F901B4E0EE0FF8
:10019000FF1FBA95E1F7E355FB4F80E090E0EBCF0E
:1001A00080917700882351F0E4E2F5E0108211821B
:1001B000709685E0E434F807C9F708951092AD040D
:1001C0000895DA01AB01813021F1813028F08230CD
:1001D00089F0833049F51CC0FD0124E0EE0FFF1FBC
:1001E0002A95E1F7EA0FFB1FEB56FE4FE60FF71FCC
:1001F00081811BC0FD0194E0EE0FFF1F9A95E1F78E
:10020000EA0FFB1FE60FF71FEB56FE4F80810DC074
:10021000119684E0AA0FBB1F8A95E1F7A40FB51FC2
:10022000AB57BF4F8C9101C0089590E00895FB013A
:10023000813051F0813028F0823059F0833089F4D8
:100240000CC0E20FF31F07C0CA01821B930B9C0175
:1002500006C0E21BF30B9A0105C0240F351FFB01FA
:1002600001C00895B901CF01089585E08093AD05DF
:100270008091840090E00196837090708093840058
:1002800080E0089583E08093AD058091840090E044
:100290000396837090708093840082E0089580912B
:1002A00077008130B9F480918000909181000797A8
:1002B000029780F42091820030918300273031052D
:1002C0004CF090E0293031050CF091E081E0982766
:1002D000892F089580E090E00895DB01FA018130D4
:1002E000A9F0813028F08230B1F0833091F522C03E
:1002F0006F3071057CF554E0EE0FFF1F5A95E1F762
:10030000E355FB4FE60FF71F818112C01416150647
:100310000CF5319713C016161706E4F444E0EE0FFF
:10032000FF1F4A95E1F7AE0FBF1FA455BB4F8C913D
:1003300090E012C04F3051056CF4319634E0EE0F6E
:10034000FF1F3A95E1F7EA0FFB1FE355FB4F808152
:10035000EFCF03C08EEF9FEF282F822F0895DA0191
:10036000AB018130B1F0813028F08230E9F0833088
:10037000B1F529C0FD0184E0EE0FFF1F8A95E1F77A
:10038000EA0FFB1FEB56FE4FE60FF71F81E081835C
:100390000895E4E0AA0FBB1FEA95E1F7A60FB71F87
:1003A000AB57BF4F8C930895FD0174E0EE0FFF1F14
:1003B0007A95E1F7EA0FFB1FE40FF51FEB56FE4FAE
:1003C00081E080830895119664E0AA0FBB1F6A95AF
:1003D000E1F7A40FB51FAB57BF4F81E08C93089591
:1003E000AF92BF92CF92DF92EF92FF920F931F9343
:1003F000CF93DF93C0E0D0E05E01CC24DD2482E027
:10040000B601A5010E94AF017E010FE010E080E07F
:10041000B801A7010E94AF012196C031D10561F753
:10042000C0E0D0E0AA24BB246E0181E0B601A501A2
:100430000E94AF019FE0E92EF12C8E0183E0B8010C
:10044000A7010E94AF012196C031D10559F7DF9174
:10045000CF911F910F91FF90EF90DF90CF90BF90C1
:10046000AF9008958F929F92AF92BF92CF92DF92FA
:10047000EF92FF920F931F93CF93DF93E091800051
:10048000F0918100809182009091830044E0EE0F12
:10049000FF1F4A95E1F7E80FF91FDF01AB55BD4F8C
:1004A0009C90EB55FC4F81E08083809184009816EE
:1004B00009F054C0CC24DD2414C00894C11CD11C04
:1004C000F5018082892DB801A70121E030E00E946A
:1004D0001701609380007093810080938200909355
:1004E0008300C0918000D091810080918200909122
:1004F000830034E0CC0FDD1F3A95E1F7C80FD91F18
:1005000025EAA22E23E0B22EAC0EBD1EF50180809E
:10051000F1E08F16A9F4E0908000F0908100009146
:10052000820010918300892DB801A7010E94E1008B
:10053000892B31F4CB55DD4F8881891509F4BDCF66
:100540002091AD0580E090E002C0019622E08C157C
:100550009D05D8F32093AD0581E01DC0E82FF0E0A4
:10056000292D30E0C901019664E070E00E94120A72
:10057000E817F90719F40E9442010DC0C90101975B
:1005800064E070E00E94120AE817F90711F00E9477
:1005900035010E943501DF91CF911F910F91FF909E
:1005A000EF90DF90CF90BF90AF909F908F90089585
:1005B00080917700882339F00E944F01882391F0C1
:1005C0001092770008958091800090918100892B8E
:1005D00049F48091820090918300892B19F481E085
:1005E0008093770008950E946100892B61F040910B
:1005F0008000509181006091820070918300809111
:1006000084000E94AF010E945500892B71F08091F7
:1006100084008F5F40918000509181006091820042
:100620007091830083700E94AF010E944900892B62
:1006300071F0809184008D5F409180005091810025
:10064000609182007091830083700E94AF010895D1
:100650006F927F928F929F92BF92CF92DF92EF9292
:10066000FF920F931F93DF93CF93CDB7DEB72E97F3
:100670000FB6F894DEBF0FBECDBF3C01B62EE886A4
:10068000F9860A871B872C873D874E87F22E0D85BA
:100690001E85488559856A857B858B2D0E94E100E2
:1006A000892B09F04CC046010894811C911CFB1455
:1006B00019F0CC24DD2404C068010894C11CD11CAD
:1006C000E884F9840A851B858B2DB801A70121E0F8
:1006D00030E00E94170169837A838B839C838B2D82
:1006E000B801A7010E946D012FEF8F3F920719F00B
:1006F0008816990624F55C2DDF82CE82BD82C30167
:1007000009811A812B813C814B2D6F810E94A905A3
:100710008B819C81E981FA8154E0EE0FFF1F5A958D
:10072000E1F7E80FF91FDF01A355BB4F8C92EB55A2
:10073000FD4F8B2D90E002968370907080832E96F3
:100740000FB6F894DEBF0FBECDBFCF91DF911F91E2
:100750000F91FF90EF90DF90CF90BF909F908F9080
:100760007F906F9008952F923F924F925F926F9279
:100770007F928F929F92AF92BF92CF92DF92EF9231
:10078000FF920F931F93DF93CF93CDB7DEB7E09720
:100790000FB6F894DEBF0FBECDBF0E94B7000E9417
:1007A00002064C01CC24DD245524539402E0602E33
:1007B00013E0712E59C0D5018C91882309F041C0F6
:1007C0000C2DD886CF822E2DFA86E9861B861D86B3
:1007D0001C86C40118853A8540E05C856D850E94C1
:1007E000A905DF86CE862E2DF98AE88A5A8A1C8AC8
:1007F0001B8AC4011F85398941E05B896C890E948D
:10080000A905DE8ACD8A2E2DF88EEF8A698E1B8E81
:100810001A8EC4011E89388D42E05A8D6B8D0E945C
:10082000A905DD8ECC8E2E2DFF8EEE8E78A21AA21B
:1008300019A2C4011D8D3F8D43E059A16AA10E94F8
:10084000A9050894E11CF11C0894A11CB11CB0E19D
:10085000EB16F10409F0AFCF0894C11CD11CE0E104
:10086000CE16D10409F47CC05601B4E0AA0CBB1C1E
:10087000BA95E1F78DEA94E0A80EB91EEE24FF24A4
:100880009ACFC4010E9430052AA73BA74CA75DA7B9
:100890006EA77FA788ABDE019396F10187E00190F8
:1008A0000D928150E1F7EBA1FCA1A4E0EE0FFF1F38
:1008B000AA95E1F78DA19EA1E80FF91FE355FB4F23
:1008C000B08019821A821B821C821E821D8200D077
:1008D00000D000D0EDB7FEB73196ADB7BEB71296D7
:1008E0005C924E92119773826282B48215820E944A
:1008F000810BEDB7FEB736960FB6F894FEBF0FBE6C
:10090000EDBFC40160E0EBA0FCA00DA11EA12FA1D2
:1009100038A549A5CB2CDD240E942803C40161E041
:10092000EBA0FCA00DA11EA12FA138A549A50E94F6
:100930002803C40162E0EBA0FCA00DA11EA12FA121
:1009400038A549A50E942803C40163E0EBA0FCA0E0
:100950000DA11EA12FA138A549A50E9428030DC0F5
:100960007AE2272E312C2C0E3D1E2E010894411CBC
:10097000511C60E6662E60E0762EC4010E941905C7
:10098000892B09F47ECFE0960FB6F894DEBF0FBE38
:10099000CDBFCF91DF911F910F91FF90EF90DF902E
:1009A000CF90BF90AF909F908F907F906F905F900F
:1009B0004F903F902F9008950E94D8020E94F3021A
:1009C0000E94B3030E9432020895DF93CF93CDB704
:1009D000DEB72E970FB6F894DEBF0FBECDBFFC0179
:1009E000009721F080819181009751F4DE011896E3
:1009F000FE01319687E001900D928150E1F708C029
:100A0000DE011896FC0187E001900D928150E1F71C
:100A1000288539854A855B856C857D858E8590E046
:100A20002E960FB6F894DEBF0FBECDBFCF91DF91EB
:100A30000895FC01009731F020E030E08481958139
:100A4000892B11F421E030E0C9010895FC010097E1
:100A500019F420E030E002C024813581C9010895F5
:100A60000F931F93DF93CF93CDB7DEB765970FB684
:100A7000F894DEBF0FBECDBF8C01009729F0DC01DA
:100A8000ED91FC91309751F4DE011F96FE013196F5
:100A900087E001900D928150E1F72BC09E01285F05
:100AA0003F4FAF0187E0DA010D90AD01D9010D9202
:100AB0009D018150C1F787819085D80111969C9343
:100AC0008E93892B21F413961C921E921297CF01BC
:100AD0000E94080BF8018481958101979583848396
:100AE000DE011F96FE01389687E001900D9281503D
:100AF000E1F72F85388949895A896B897C898D89E5
:100B000090E065960FB6F894DEBF0FBECDBFCF91D3
:100B1000DF911F910F910895CF93DF93EC01009720
:100B200041F08C819D81892B21F0CE010E943005FE
:100B3000F8CFDF91CF910895CF93DF93EC01009729
:100B400029F00E948C05CE010E94080BDF91CF9105
:100B50000895EF92FF920F931F93DF93CF93CDB73A
:100B6000DEB727970FB6F894DEBF0FBECDBF7C016E
:100B700009831A832B833C834D835E836F830097A5
:100B8000A1F189E090E00E945B0AFC01009769F105
:100B90009C01AE014F5F5F4F87E0DA010D90AD0120
:100BA000D9010D929D018150C1F710861782D7019E
:100BB00012968D919C911397009739F41396FC939C
:100BC000EE931297ED93FC930AC0DC011896FC9308
:100BD000EE931797D7011396FC93EE931297F701B4
:100BE0008481958101969583848327960FB6F89426
:100BF000DEBF0FBECDBFCF91DF911F910F91FF9050
:100C0000EF90089586E090E00E945B0AFC01009757
:100C100031F0138212821182108215821482CF0168
:100C20000895BB9A9DE693BF90E0A0E0B0E0BC01C0
:100C3000CD012FEF30E040E050E00E94F30924E6C0
:100C400030E040E050E00E94250A2CBF0895683053
:100C500008F070C0843008F06DC0813009F1813037
:100C600030F08230B1F1833009F064C04BC04130C4
:100C700059F42AB381E090E002C0880F991F6A9569
:100C8000E2F7282B2ABB08952AB381E090E002C046
:100C9000880F991F6A95E2F7809582238ABB089591
:100CA000413059F427B381E090E002C0880F991FCA
:100CB0006A95E2F7282B27BB089527B381E090E0DF
:100CC00002C0880F991F6A95E2F78095822387BB3F
:100CD0000895413059F424B381E090E002C0880FB8
:100CE000991F6A95E2F7282B24BB089524B381E06D
:100CF00090E002C0880F991F6A95E2F780958223E1
:100D000084BB0895413059F421B381E090E002C0E2
:100D1000880F991F6A95E2F7282B21BB089521B30C
:100D200081E090E002C0880F991F6A95E2F78095F4
:100D3000822381BB0895683008F070C0843008F0C9
:100D40006DC0813009F1813030F08230B1F18330F3
:100D500009F064C04BC0413059F42BB381E090E0FE
:100D600002C0880F991F6A95E2F7282B2BBB0895C4
:100D70002BB381E090E002C0880F991F6A95E2F7DB
:100D8000809582238BBB0895413059F428B381E0CC
:100D900090E002C0880F991F6A95E2F7282B28BBC4
:100DA000089528B381E090E002C0880F991F6A95EA
:100DB000E2F78095822388BB0895413059F425B32A
:100DC00081E090E002C0880F991F6A95E2F7282B16
:100DD00025BB089525B381E090E002C0880F991FDC
:100DE0006A95E2F78095822385BB0895413059F4D6
:100DF00022B381E090E002C0880F991F6A95E2F764
:100E0000282B22BB089522B381E090E002C0880F16
:100E1000991F6A95E2F78095822382BB0895683016
:100E2000D0F48430C0F4813049F0813028F0823031
:100E300039F0833081F406C089B305C086B303C09E
:100E400083B301C080B390E002C0959587956A9501
:100E5000E2F78170089580E00895843080F4813055
:100E600049F0813028F0823039F0833041F406C0F7
:100E70006ABB089567BB089564BB089561BB08957C
:100E8000843080F4813049F0813028F0823039F0AC
:100E9000833041F406C06BBB089568BB089565BB01
:100EA000089562BB0895843088F4813049F0813020
:100EB00028F0823039F0833049F406C089B30895B0
:100EC00086B3089583B3089580B3089580E00895AC
:100ED00087B3836087BBBB9A8BE683BF88B38C7F65
:100EE00088BB1CBE089581B3806681BB8F9A8CE657
:100EF00085BD82B38F7982BB13BC0895282F6536D8
:100F000008F064E68FEF689FC001112464E670E08A
:100F10000E94120A6CBF213019F0223039F403C04C
:100F2000C09AC1980895C19AC098089588B38C7FDB
:100F300088BB0895282F653608F064E68FEF689F18
:100F4000C001112464E670E00E94120A63BD2130E2
:100F500019F0223039F403C0959A96980895969A1C
:100F60009598089582B38F7982BB0895A0980895CB
:100F7000A1980895A2980895A3980895A498089513
:100F8000A5980895A6980895A798089583B38170A9
:100F9000089583B390E0969587958170089583B303
:100FA00090E096958795969587958170089583B37F
:100FB00090E043E0969587954A95E1F78170089512
:100FC00083B390E054E0969587955A95E1F7817048
:100FD000089583B390E065E0969587956A95E1F76B
:100FE0008170089583B390E076E0969587957A9521
:100FF000E1F78170089583B3881F8827881F0895BB
:10100000DF92EF92FF920F931F93D82E80E061E062
:1010100041E00E949B06E0EAEE2EEFE0FE2EC701C3
:101020000197F1F780E062E041E00E949B06C70172
:101030000197F1F70D2D10E0A8014071507074E098
:10104000559547957A95E1F780E063E00E949B060D
:10105000A8014072507065E0559547956A95E1F793
:1010600080E064E00E949B06A8014074507036E066
:10107000559547953A95E1F780E065E00E949B061B
:101080004D2D441F4427441F80E066E00E949B06CC
:10109000C7010197F1F780E062E040E00E949B0603
:1010A000C7010197F1F780E062E041E00E949B06F2
:1010B000C7010197F1F781E0D82280E063E04D2D70
:1010C0000E949B06A801427050705595479580E09C
:1010D00064E00E949B06A8014470507055954795A6
:1010E0005595479580E065E00E949B06087010705A
:1010F00083E0159507958A95E1F780E066E0402F3B
:101100000E949B06C7010197F1F780E062E040E092
:101110000E949B06C7010197F1F71F910F91FF9065
:10112000EF90DF9008951F93CF93DF93EC0110E0D1
:1011300003C00E9400081F5FFE01E10FF11D8081C6
:101140008823B9F7DF91CF911F9108950F931F93D3
:10115000DF93CF93CDB7DEB760970FB6F894DEBFBD
:101160000FBECDBF8E010F5F1F4FB8014AE050E0A8
:101170000E94600BC8010E94930860960FB6F89415
:10118000DEBF0FBECDBFCF91DF911F910F910895AC
:10119000DF92EF92FF920F931F93D82E80E061E0D1
:1011A00040E00E949B0630EAE32E3FE0F32EC701A9
:1011B0000197F1F780E062E041E00E949B06C701E1
:1011C0000197F1F70D2D10E0A8014071507024E057
:1011D000559547952A95E1F780E063E00E949B06CC
:1011E000A8014072507095E0559547959A95E1F7A2
:1011F00080E064E00E949B06A8014074507086E085
:10120000559547958A95E1F780E065E00E949B0639
:101210004D2D441F4427441F80E066E00E949B063A
:10122000C7010197F1F780E062E040E00E949B0671
:10123000C7010197F1F780E062E041E00E949B0660
:10124000C7010197F1F781E0D82280E063E04D2DDE
:101250000E949B06A801427050705595479580E00A
:1012600064E00E949B06A801447050705595479514
:101270005595479580E065E00E949B0608701070C8
:10128000F3E015950795FA95E1F780E066E0402FC9
:101290000E949B06C7010197F1F780E062E040E001
:1012A0000E949B06C7010197F1F71F910F91FF90D4
:1012B000EF90DF90089581E00E94C8080895813082
:1012C00039F0813050F0823029F0833031F404C09D
:1012D000605C03C0605F01C0605B862F80680E9415
:1012E000C80808950F931F938A010E945F09C801DF
:1012F0000E9493081F910F91089580E061E041E002
:101300000E94270680E062E041E00E94270688EC08
:1013100090E020E931E0F9013197F1F70197D9F731
:1013200080E063E041E00E94270680E064E041E065
:101330000E94270680E065E041E00E94270680E0E9
:1013400066E041E00E94270683E30E94C80882E32A
:101350000E94C80888E20E94C8088CE00E94C80861
:1013600081E00E94C80808950E947D090E94F00152
:101370000E94B6070E94B8070E94BA070E94BC07E5
:101380000E94BE070E94C0070E94C2070E94C407B5
:101390000E9468070E94730783E690E00E9493080A
:1013A0000E94C6078093A6040E94C9078093AA04DE
:1013B0000E94CF078093AB040E94D7078093A704B5
:1013C0000E94E0078093A9040E94E9078093A50486
:1013D0000E94F2078093AC040E94FB078093A8044C
:1013E0000E94DC04DDCF629FD001739FF001829FD9
:1013F000E00DF11D649FE00DF11D929FF00D839FA4
:10140000F00D749FF00D659FF00D9927729FB00D40
:10141000E11DF91F639FB00DE11DF91FBD01CF0153
:101420001124089597FB092E07260AD077FD04D0D2
:101430002ED006D000201AF4709561957F4F089544
:10144000F6F7909581959F4F0895A1E21A2EAA1B59
:10145000BB1BFD010DC0AA1FBB1FEE1FFF1FA21764
:10146000B307E407F50720F0A21BB30BE40BF50B61
:10147000661F771F881F991F1A9469F760957095EA
:10148000809590959B01AC01BD01CF010895AA1BE9
:10149000BB1B51E107C0AA1FBB1FA617B70710F05F
:1014A000A61BB70B881F991F5A95A9F78095909591
:1014B000BC01CD010895CF93DF93BC01823091052B
:1014C00010F462E070E0A091B005B091B105ED01BB
:1014D000E0E0F0E040E050E021C08881998186178B
:1014E000970769F48A819B81309719F093838283EF
:1014F00004C09093B1058093B005FE0134C0681715
:10150000790738F44115510519F08417950708F447
:10151000AC01FE018A819B819C01E9012097E9F6DB
:1015200041155105A9F1CA01861B970B049708F4D0
:10153000BA01E0E0F0E02AC08D919C9111978417E8
:101540009507F9F46417750781F412968D919C91B3
:101550001397309719F09383828304C09093B10559
:101560008093B005FD0132964FC0CA01861B970BD0
:10157000FD01E80FF91F6193719302978D939C937E
:1015800043C0FD01828193819C01D9011097A1F68E
:101590008091AE059091AF05892B41F48091730045
:1015A000909174009093AF058093AE0540917500C3
:1015B000509176004115510541F44DB75EB78091C9
:1015C000710090917200481B590B2091AE0530912B
:1015D000AF0524173507B0F4CA01821B930B861799
:1015E000970780F0AB014E5F5F4F8417950750F06F
:1015F000420F531F5093AF054093AE05F90161931D
:10160000719302C0E0E0F0E0CF01DF91CF91089547
:10161000CF93DF93009709F450C0EC0122971B820F
:101620001A82A091B005B091B105109709F140E080
:1016300050E0AC17BD0708F1BB83AA83FE012191DE
:101640003191E20FF31FAE17BF0779F48D919C9192
:101650001197280F391F2E5F3F4F39832883129629
:101660008D919C9113979B838A834115510571F449
:10167000D093B105C093B00520C012968D919C9176
:101680001397AD01009711F0DC01D3CFFA01D3839A
:10169000C28321913191E20FF31FCE17DF0769F466
:1016A00088819981280F391F2E5F3F4FFA013183BE
:1016B00020838A819B8193838283DF91CF910895D8
:1016C000FB019F01E8944230C4F04532B4F44A3043
:1016D00029F497FB1EF4909581959F4F642F7727EF
:1016E0000E94470A805D8A330CF0895D8193CB01AB
:1016F0000097A1F716F45DE251931082C9010C9492
:10170000980DAEE0B0E0E7E8FBE00C94400E0D89E8
:101710001E8986E08C831A8309838FEF9FE79E835F
:101720008D839E01275E3F4FCE0101966F89788D94
:10173000A9010E94A50B2F813885020F131FF80104
:1017400010822E96E4E00C945C0EABE0B0E0EBEA85
:10175000FBE00C94320E3C012B015A01FC01178274
:101760001682838181FD03C06FEF7FEFC6C19AE0CF
:10177000892E1E010894211C311CF3012381F201E2
:1017800023FD859123FF81912F01882309F4B2C1A4
:10179000853239F423FD859123FF81912F01853214
:1017A00029F490E0B3010E94A80DE7CF982FFF2401
:1017B000EE249924FFE1FF15D0F09B3269F09C32B2
:1017C00028F4903259F0933291F40EC09D3249F0D2
:1017D000903369F441E024C052E0F52A84E0F82A0D
:1017E00028C098E0F92A25C0E0E1FE2A22C0F7FCD3
:1017F00029C0892F80538A3070F4F6FE05C0989C6A
:10180000902C1124980E15C0E89CE02C1124E80EB1
:10181000F0E2FF2A0EC09E3229F4F6FC6BC140E4D0
:10182000F42A07C09C3619F450E8F52A02C098360D
:1018300049F4F20123FD959123FF91912F01992302
:1018400009F0B8CF892F8554833018F08052833047
:1018500038F444E050E0A40EB51E5FE359830FC096
:10186000933631F0933779F0933509F056C020C0A4
:10187000F5018081898342E050E0A40EB51E61012C
:1018800001E010E012C0F501C080D180F6FC03C079
:101890006FEF7FEF02C0692D70E042E050E0A40ED0
:1018A000B51EC6010E948D0D8C015FE7F52214C0A4
:1018B000F501C080D180F6FC03C06FEF7FEF02C05E
:1018C000692D70E042E050E0A40EB51EC6010E94F2
:1018D000820D8C0150E8F52AF3FE07C01AC080E2A1
:1018E00090E0B3010E94A80DEA948E2D90E00817B5
:1018F0001907A8F30EC0F601F7FC8591F7FE819158
:101900006F0190E0B3010E94A80DE110EA9401502C
:1019100010400115110579F7EAC0943611F0993697
:1019200069F5F7FE08C0F5012081318142815381BC
:1019300084E090E00AC0F501808191819C014427F8
:1019400037FD4095542F82E090E0A80EB91E9FE627
:10195000F92257FF09C050954095309521953F4F8A
:101960004F4F5F4FE0E8FE2ACA01B901A1012AE00A
:1019700030E00E94D40DD82ED21840C0953729F4FB
:101980001F2D1F7E2AE030E01DC01F2D197F9F36BE
:1019900061F0903720F4983509F0ACC00FC0903753
:1019A00039F0983709F0A6C004C028E030E00AC03A
:1019B000106114FD146020E130E004C014FD1660D5
:1019C00020E132E017FF08C0F5016081718182815A
:1019D000938144E050E008C0F50180819181BC0111
:1019E00080E090E042E050E0A40EB51EA1010E940C
:1019F000D40DD82ED2188FE7F82EF122F6FE0BC0A8
:101A00005EEFF522D91438F4F4FE07C0F2FC05C0ED
:101A10008FEEF82202C01D2D01C0192DF4FE0DC05D
:101A2000FE01ED0DF11D8081803319F499EEF9224C
:101A300008C01F5FF2FE05C003C08F2D867809F035
:101A40001F5F0F2DF3FC14C0F0FE0FC01E1510F029
:101A50009D2C0BC09D2C9E0C911A1E2D06C080E261
:101A600090E0B3010E94A80D1F5F1E15C0F304C0D3
:101A70001E1510F4E11A01C0EE2404FF0FC080E32C
:101A800090E0B3010E94A80D02FF1DC001FD03C03C
:101A900088E790E00EC088E590E00BC0802F867844
:101AA00091F001FF02C08BE201C080E2F7FC8DE201
:101AB00090E0B3010E94A80D06C080E390E0B3015E
:101AC0000E94A80D9A94D914C0F3DA94F101ED0D97
:101AD000F11D808190E0B3010E94A80DDD20A9F7DF
:101AE00006C080E290E0B3010E94A80DEA94EE20C7
:101AF000C1F743CEF30166817781CB012B96E2E1FA
:101B00000C944E0EFC010590615070400110D8F706
:101B1000809590958E0F9F1F0895FC016150704035
:101B200001900110D8F7809590958E0F9F1F089512
:101B3000DC01FC01672F71917723E1F7329704C034
:101B40007C916D9370836291AE17BF07C8F30895BF
:101B50000F931F93CF93DF938C01EB018B8181FF58
:101B60001BC082FF0DC02E813F818C819D81281773
:101B7000390764F4E881F9810193F983E88306C0A9
:101B8000E885F985802F0995892B31F48E819F8115
:101B900001969F838E8302C00FEF1FEFC801DF9174
:101BA000CF911F910F910895FA01AA27283051F182
:101BB000203181F1E8946F936E7F6E5F7F4F8F4F7E
:101BC0009F4FAF4FB1E03ED0B4E03CD0670F781FDD
:101BD000891F9A1FA11D680F791F8A1F911DA11DC2
:101BE0006A0F711D811D911DA11D20D009F46894FB
:101BF0003F912AE0269F11243019305D3193DEF6A3
:101C0000CF010895462F4770405D4193B3E00FD058
:101C1000C9F7F6CF462F4F70405D4A3318F0495D43
:101C200031FD4052419302D0A9F7EACFB4E0A69526
:101C30009795879577956795BA95C9F70097610548
:101C4000710508959B01AC010A2E0694579547959E
:101C500037952795BA95C9F7620F731F841F951F93
:101C6000A01D08952F923F924F925F926F927F92A4
:101C70008F929F92AF92BF92CF92DF92EF92FF929C
:101C80000F931F93CF93DF93CDB7DEB7CA1BDB0B48
:101C90000FB6F894DEBF0FBECDBF09942A883988ED
:101CA00048885F846E847D848C849B84AA84B984F4
:101CB000C884DF80EE80FD800C811B81AA81B98100
:101CC000CE0FD11D0FB6F894DEBF0FBECDBFED0114
:061CD0000895F894FFCF17
:101CD6002564006D617A61727974615F7465616D06
:101CE600002000B205000001000100000000010014
:00000001FF
