:100000000C942A000C94A1140C9418090C94430924
:100010000C9420250C9447000C9447000C94470046
:100020000C9447000C9447000C9447000C94470034
:100030000C9447000C9447000C9447000C94470024
:100040000C9447000C9447000C9447000C94470014
:100050000C94470011241FBECFE5D8E0DEBFCDBF12
:1000600011E0A0E6B0E0EEE5F6E502C005900D92E5
:10007000A23AB107D9F719E0A2EAB1E001C01D9296
:10008000AA30B107E1F70E94BE250C942D2B0C94E9
:100090000000EF92FF920F931F937B018C0120E0F1
:1000A00030E040E05FE40E94F50388238CF0C80153
:1000B000B70120E030E040E05FE40E94C1010E940F
:1000C000B3049B01AC01205030404040504806C072
:1000D000C801B7010E94B3049B01AC01B901CA0178
:1000E0001F910F91FF90EF900895A0E0B0E0EBE733
:1000F000F0E00C941728DC012B01FA019C9192305E
:1001000008F439C1EB018881823008F433C194309E
:1001100069F4843009F02FC111969C91119789815F
:10012000981709F428C1AAE8B0E025C1843009F481
:1001300021C18230A9F4923009F01DC19A01AD01AC
:1001400088E0EA010990AE01E90109929E0181501F
:10015000C1F7E201898111969C918923818308C1AD
:10016000923009F407C112962D903C901397EB0141
:100170008A819B811496AD90BD90CD90DC901797AD
:10018000EC80FD800E811F819101281B390BB90184
:1001900037FF04C066277727621B730B6032710537
:1001A0000CF061C0121613066CF537014801062EDB
:1001B00004C096948794779467940A94D2F721E0C8
:1001C00030E040E050E004C0220F331F441F551FB1
:1001D0006A95D2F721503040404050402E213F21B7
:1001E00040235123211531054105510521F021E01E
:1001F00030E040E050E079018A01E628F72808293C
:1002000019293CC0232BD1F1260E371E350146019A
:10021000062E04C096948794779467940A94D2F734
:1002200021E030E040E050E004C0220F331F441FC3
:10023000551F6A95D2F721503040404050402A2146
:100240003B214C215D21211531054105510521F04E
:1002500021E030E040E050E059016A01A628B728CB
:10026000C828D9280BC0821593052CF01C01AA249C
:10027000BB24650103C0EE24FF24870111969C91E5
:10028000D20111968C91981709F445C0992339F041
:10029000A80197012A193B094C095D0906C0A6016E
:1002A00095012E193F09400B510B57FD08C01182D3
:1002B0003382228224833583468357831DC081E0A5
:1002C00081833382228288279927DC01821B930B4A
:1002D000A40BB50B84839583A683B7830DC0220F2F
:1002E000331F441F551F24833583468357838281E0
:1002F000938101979383828324813581468157813D
:10030000DA01C9010197A109B1098F5F9F4FAF4F72
:10031000BF4328F30BC0918333822282EA0CFB1C7B
:100320000C1D1D1DE482F5820683178383E0808304
:10033000248135814681578157FF1AC0C901AA27F8
:1003400097FDA095BA2F81709070A070B0705695EF
:10035000479537952795822B932BA42BB52B848318
:100360009583A683B7838281938101969383828349
:10037000DF0101C0D201CD01CDB7DEB7E2E10C94BF
:100380003328A0E2B0E0E7ECF1E00C942328698385
:100390007A838B839C832D833E834F835887E9E048
:1003A000EE2EF12CEC0EFD1ECE010196B7010E943F
:1003B0002B068E010F5E1F4FCE010596B8010E94DD
:1003C0002B068A8991E089278A8BC701B801AE0183
:1003D000475E5F4F0E9475000E945605A096E6E0BA
:1003E0000C943F28A0E2B0E0E8EFF1E00C94232861
:1003F00069837A838B839C832D833E834F835887C5
:10040000F9E0EF2EF12CEC0EFD1ECE010196B701A6
:100410000E942B068E010F5E1F4FCE010596B8017C
:100420000E942B06C701B801AE01475E5F4F0E94D4
:1004300075000E945605A096E6E00C943F28A0E2C5
:10044000B0E0E5E2F2E00C94172869837A838B83AD
:100450009C832D833E834F835887CE010196BE0136
:10046000675F7F4F0E942B06CE010596BE016F5E2F
:100470007F4F0E942B069985923088F089898230BF
:10048000C8F0943019F4823051F404C0843029F457
:10049000923081F48AE890E0C6C0923049F420E0BE
:1004A0009A858A89981321E02A87CE010996BBC0D4
:1004B000823049F420E09A858A89981321E02A8BBA
:1004C000CE014196B0C02D843E844F8458886D88FB
:1004D0007E888F88988CEE24FF248701AA24BB2471
:1004E000650140E050E060E070E0E0E0F0E0C10174
:1004F00081709070892BE9F0E60CF71C081D191D1E
:100500009A01AB012A0D3B1D4C1D5D1D80E090E062
:10051000A0E0B0E0E614F7040805190520F481E036
:1005200090E0A0E0B0E0BA01A901480F591F6A1F8E
:100530007B1FAA0CBB1CCC1CDD1C97FE08C081E0F5
:1005400090E0A0E0B0E0A82AB92ACA2ADB2A3196B6
:10055000E032F10549F0660C771C881C991C569412
:10056000479437942794C3CFFA85EA892B893C892D
:100570008B859C85280F391F2E5F3F4F17C0CA01FE
:1005800081709070892B61F016950795F794E79428
:1005900080E090E0A0E0B0E8E82AF92A0A2B1B2BC3
:1005A00076956795579547952F5F3F4F77FDE7CF36
:1005B0000CC0440F551F661F771F17FD4160EE0CDE
:1005C000FF1C001F111F21503040403090E05907A0
:1005D00090E0690790E4790760F32B8F3C8FDB0193
:1005E000CA018F779070A070B07080349105A1051A
:1005F000B10561F447FD0AC0E114F10401051105DC
:1006000029F0405C5F4F6F4F7F4F40781A8EFE1786
:1006100011F081E08A8F4D8F5E8F6F8F78A383E01A
:10062000898FCE0149960E945605A096E2E10C946E
:100630003328A8E1B0E0EFE1F3E00C941F286983D0
:100640007A838B839C832D833E834F835887B9E0C5
:10065000EB2EF12CEC0EFD1ECE010196B7010E948F
:100660002B068E010F5E1F4FCE010596B8010E942A
:100670002B062985223008F47EC03989323010F4E7
:10068000B8017CC08A859A8989278A87243011F02D
:10069000223031F4231709F06EC06AE870E06EC0B2
:1006A000343039F41D861E861F86188A1C861B86E8
:1006B00004C0323021F484E08987B7015FC02B8504
:1006C0003C858B899C89281B390B3C872B87ED84C3
:1006D000FE840F851889AD88BE88CF88D88CEA142F
:1006E000FB040C051D0540F4EE0CFF1C001F111F40
:1006F000215030403C872B8720E030E040E050E044
:1007000080E090E0A0E0B0E460E070E0EA14FB0478
:100710000C051D0540F0282B392B4A2B5B2BEA18C2
:10072000FB080C091D09B695A79597958795EE0CC2
:10073000FF1C001F111F6F5F7F4F6F31710531F775
:10074000DA01C9018F779070A070B0708034910584
:10075000A105B10561F427FD0AC0E114F10401050A
:10076000110529F0205C3F4F4F4F5F4F20782D87B8
:100770003E874F87588BBE01675F7F4FCB010E943A
:1007800056056896EAE00C943B28A8E1B0E0EBEC53
:10079000F3E00C94232869837A838B839C832D83D5
:1007A0003E834F83588789E0E82EF12CEC0EFD1E26
:1007B000CE010196B7010E942B068E010F5E1F4FDE
:1007C000CE010596B8010E942B068985823040F043
:1007D0008989823028F0C701B8010E94A30601C0B0
:1007E0008FEF6896E6E00C943F28A8E1B0E0EBEFCD
:1007F000F3E00C94232869837A838B839C832D8375
:100800003E834F83588789E0E82EF12CEC0EFD1EC5
:10081000CE010196B7010E942B068E010F5E1F4F7D
:10082000CE010596B8010E942B068985823040F0E2
:100830008989823028F0C701B8010E94A30601C04F
:100840008FEF6896E6E00C943F28A8E1B0E0EBE279
:10085000F4E00C94232869837A838B839C832D8313
:100860003E834F83588789E0E82EF12CEC0EFD1E65
:10087000CE010196B7010E942B068E010F5E1F4F1D
:10088000CE010596B8010E942B068985823040F082
:100890008989823028F0C701B8010E94A30601C0EF
:1008A00081E06896E6E00C943F28A8E0B0E0EBE534
:1008B000F4E00C9420289B01AC0183E08983DA01E9
:1008C000C9018827B7FD83959927AA27BB27B82E8A
:1008D000211531054105510519F482E089833AC09B
:1008E0008823A9F0203080E0380780E0480780E8BE
:1008F000580729F460E070E080E09FEC30C0EE24FF
:10090000FF248701E21AF30A040B150B02C07901D8
:100910008A018EE1C82ED12CDC82CB82ED82FE8250
:100920000F831887C801B7010E94070501971816A1
:10093000190684F4082E04C0EE0CFF1C001F111FC2
:100940000A94D2F7ED82FE820F831887C81AD90A5B
:10095000DC82CB82BA82CE0101960E94560528968F
:10096000E9E00C943C28ACE0B0E0E9EBF4E00C9456
:10097000272869837A838B839C83CE010196BE01ED
:100980006B5F7F4F0E942B068D81823061F1823038
:1009900050F1843021F48E81882351F12EC02F81B3
:1009A000388537FD20C06E812F3131051CF066235C
:1009B000F9F023C08EE190E0821B930B29853A85E4
:1009C0004B855C8504C056954795379527958A9544
:1009D000D2F76623B1F050954095309521953F4F61
:1009E0004F4F5F4F0EC020E030E040E050E009C0C4
:1009F0002FEF3FEF4FEF5FE704C020E030E040E033
:100A000050E8B901CA012C96E2E00C944328EF9219
:100A1000FF920F931F937B018C0180E0E81680E02A
:100A2000F80681E0080780E0180788F48FEFE816E1
:100A3000F1040105110531F028F088E090E0A0E014
:100A4000B0E017C080E090E0A0E0B0E012C080E02D
:100A5000E81680E0F80680E0080781E0180728F033
:100A600088E190E0A0E0B0E004C080E190E0A0E088
:100A7000B0E020E230E040E050E0281B390B4A0BA8
:100A80005B0B04C016950795F794E7948A95D2F707
:100A9000F701EE56FF4F8081281B310941095109AA
:100AA000C9011F910F91FF90EF900895DF92EF928F
:100AB000FF920F931F93FC01E480F580068117815C
:100AC000D1808081823048F480E090E0A0E1B0E005
:100AD000E82AF92A0A2B1B2BA5C0843009F49FC0F1
:100AE000823021F4EE24FF24870105C0E114F104D3
:100AF0000105110519F4E0E0F0E096C06281738110
:100B00009FEF623879070CF05BC022E83FEF261BAD
:100B1000370B2A3131052CF020E030E040E050E086
:100B20002AC0B801A701022E04C076956795579593
:100B300047950A94D2F781E090E0A0E0B0E004C0CD
:100B4000880F991FAA1FBB1F2A95D2F70197A109E9
:100B5000B1098E219F21A023B1230097A105B105E2
:100B600021F081E090E0A0E0B0E09A01AB01282BF9
:100B7000392B4A2B5B2BDA01C9018F779070A0705B
:100B8000B07080349105A105B10539F427FF09C083
:100B9000205C3F4F4F4F5F4F04C0215C3F4F4F4F92
:100BA0005F4FE0E0F0E02030A0E03A07A0E04A0725
:100BB000A0E45A0710F0E1E0F0E079018A0127C0D3
:100BC0006038710564F5FB01E158FF4FD801C7019A
:100BD0008F779070A070B07080349105A105B10539
:100BE00039F4E7FE0DC080E490E0A0E0B0E004C07E
:100BF0008FE390E0A0E0B0E0E80EF91E0A1F1B1F93
:100C000017FF05C016950795F794E794319687E08E
:100C100016950795F794E7948A95D1F705C0EE24C9
:100C2000FF248701EFEFF0E06E2F67956627679549
:100C3000902F9F77D794DD24D7948E2F8695492FB8
:100C4000462B582F5D29B701CA011F910F91FF90C4
:100C5000EF90DF900895FC01DB01408151812281FA
:100C6000622F6F7770E0221F2227221F9381892F26
:100C7000880F822B282F30E0991F9927991F1196F2
:100C80009C93119721153105A9F541155105610571
:100C9000710511F482E037C082E89FEF13969C93B0
:100CA0008E9312979A01AB0167E0220F331F441F06
:100CB000551F6A95D1F783E08C930DC0220F331F27
:100CC000441F551F12968D919C911397019713966F
:100CD0009C938E931297203080E0380780E048077D
:100CE00080E4580758F314962D933D934D935C93ED
:100CF000179708952F3F310579F441155105610586
:100D0000710519F484E08C93089564FF03C081E0B9
:100D10008C9312C01C9210C02F57304013963C93F6
:100D20002E93129783E08C9387E0440F551F661F24
:100D3000771F8A95D1F7706414964D935D936D93E8
:100D40007C93179708951F93DC01FB019C919230CF
:100D500008F447C08081823008F443C0943051F4D5
:100D600011961C91843099F58181682F70E0611B88
:100D700071093FC0843021F0923031F48230B9F1F2
:100D80008181882389F12DC011961C9111978230A1
:100D9000F1F081811817D9F412962D913C91139797
:100DA000828193818217930794F028173907BCF04A
:100DB00014968D919D910D90BC91A02D248135812B
:100DC00046815781281739074A075B0718F4112312
:100DD00041F00AC082179307A407B50740F4112316
:100DE00019F061E070E005C06FEF7FEF02C060E0D6
:100DF00070E0CB011F9108958F929F92AF92BF92A6
:100E0000CF92DF92EF92FF920F931F93DF93CF93D6
:100E1000CDB7DEB762970FB6F894DEBF0FBECDBF79
:100E20009A8389834B835C836D837E830F831887CA
:100E300029873A87CB86DC86ED86FE868F86988A60
:100E4000A98ABA8AE981FA818B819C81AD81BE81B0
:100E500080839183A283B383E981FA818F8198850E
:100E6000A985BA8584839583A683B783E981FA81AE
:100E70008B859C85AD85BE8580879187A287B3874A
:100E8000E981FA818F859889A989BA8984879587AC
:100E9000A687B787E981FA8180E090E0A0E0B0E022
:100EA000808B918BA28BB38BE981FA8180E090E0FB
:100EB000A0E0B0E0848B958BA68BB78BE981FA819B
:100EC00089A19AA1ABA1BCA1808F918FA28FB38F72
:100ED000E981FA818DA19EA1AFA1B8A5848F958FDC
:100EE000A68FB78F62960FB6F894DEBF0FBECDBF48
:100EF000CF91DF911F910F91FF90EF90DF90CF90F6
:100F0000BF90AF909F908F900895EF92FF920F93B4
:100F10001F93DF93CF93CDB7DEB766970FB6F894E4
:100F2000DEBF0FBECDBF9E878D874F87588B698BE5
:100F30007A8B0B8B1C8B2D8B3E8B6F8578898989E7
:100F40009A892B893C894D895E890E94C101DC0107
:100F5000CB0189879A87AB87BC87ED85FE85E088C2
:100F6000F18802891389ED85FE8584859585A6859E
:100F7000B785BC01CD0129853A854B855C850E94EA
:100F80001F02DC01CB019C01AD01C801B7010E9429
:100F9000F201DC01CB01ED85FE85808B918BA28B6C
:100FA000B38BED85FE8580899189A289B389ED8512
:100FB000FE852481358146815781BC01CD010E9487
:100FC0001F02DC01CB01ED85FE85248D358D468D1C
:100FD000578DBC01CD010E94C5031816CCF4ED85D8
:100FE000FE85848D958DA68DB78DED85FE8524813A
:100FF000358146815781BC01CD010E941903DC0176
:10100000CB01ED85FE85808B918BA28BB38B36C097
:10101000ED85FE8580899189A289B389ED85FE855C
:101020002481358146815781BC01CD010E941F0278
:10103000DC01CB01ED85FE85208D318D428D538DF8
:10104000BC01CD010E9425048823C4F4ED85FE85F2
:10105000808D918DA28DB38DED85FE8524813581A6
:1010600046815781BC01CD010E941903DC01CB01EF
:10107000ED85FE85808B918BA28BB38BED85FE85F4
:10108000248935894689578969857A858B859C8528
:101090000E94C101DC01CB01ED85FE8524853585EB
:1010A00046855785BC01CD010E941903DC01CB01A7
:1010B0008D839E83AF83B887ED85FE858081918186
:1010C000A281B381BC01CD0129853A854B855C8520
:1010D0000E941F02DC01CB017C018D01ED85FE85A4
:1010E00084819581A681B781ED85FE85208931892E
:1010F00042895389BC01CD010E941F02DC01CB0152
:101100009C01AD01C801B7010E94F201DC01CB01D5
:101110007C018D01ED85FE8580859185A285B38555
:10112000BC01CD012D813E814F8158850E941F0257
:10113000DC01CB019C01AD01C801B7010E94F201A5
:10114000DC01CB0189839A83AB83BC83ED85FE856B
:10115000848D958DA68DB78DBC01CD0129813A81F5
:101160004B815C810E94250488235CF4ED85FE851B
:10117000848D958DA68DB78D89839A83AB83BC832F
:101180001AC0ED85FE85808D918DA28DB38DBC0139
:10119000CD0129813A814B815C810E94C5031816DB
:1011A00054F4ED85FE85808D918DA28DB38D89835C
:1011B0009A83AB83BC83ED85FE8589859A85AB8553
:1011C000BC85848B958BA68BB78B89819A81AB81EB
:1011D000BC81BC01CD0166960FB6F894DEBF0FBE90
:1011E000CDBFCF91DF911F910F91FF90EF900895A8
:1011F000DF93CF9300D0CDB7DEB79A838983E9819F
:10120000FA8180E090E0A0E0B0E0808B918BA28B2F
:10121000B38BE981FA8180E090E0A0E0B0E0848BBC
:10122000958BA68BB78B0F900F90CF91DF91089580
:101230001F920F920FB60F9211248F939F93AF932B
:10124000BF93DF93CF93CDB7DEB78091BA01909172
:10125000BB01A091BC01B091BD010196A11DB11DC2
:101260008093BA019093BB01A093BC01B093BD01E0
:10127000CF91DF91BF91AF919F918F910F900FBE52
:101280000F901F9018951F920F920FB60F92112476
:101290008F939F93AF93BF93DF93CF93CDB7DEB779
:1012A0008091BE019091BF01A091C001B091C10198
:1012B0000196A11DB11D8093BE019093BF01A09323
:1012C000C001B093C101CF91DF91BF91AF919F91C8
:1012D0008F910F900FBE0F901F901895DF93CF93B3
:1012E000CDB7DEB760970FB6F894DEBF0FBECDBFA7
:1012F0008AEB91E00E94FD19DC01CB018D879E876E
:10130000AF87B88B8EEB91E00E94FD19DC01CB0119
:1013100089879A87AB87BC876D857E858F859889FD
:101320002BED3FE049E450E40E941F02DC01CB01B9
:10133000BC01CD0120E030E048E252E40E941F02EF
:10134000DC01CB01BC01CD0120E030E040E752E4FC
:101350000E941903DC01CB018D839E83AF83B88784
:1013600069857A858B859C852BED3FE049E450E4C7
:101370000E941F02DC01CB01BC01CD0120E030E066
:1013800048E252E40E941F02DC01CB01BC01CD0106
:1013900020E030E040E752E40E941903DC01CB0179
:1013A00089839A83AB83BC836D817E818F8198858D
:1013B00029813A814B815C810E94F201DC01CB01E1
:1013C000BC01CD0120E030E040E050E40E94190370
:1013D000DC01CB01BC01CD0160960FB6F894DEBFF5
:1013E0000FBECDBFCF91DF910895EF92FF920F9383
:1013F0001F93DF93CF93CDB7DEB72C970FB6F8943A
:10140000DEBF0FBECDBF2091BA013091BB0140912C
:10141000BC015091BD018091A6019091A701A091BE
:10142000A801B091A90179018A01E81AF90A0A0B09
:101430001B0BD801C70189879A87AB87BC8720918E
:10144000BE013091BF014091C0015091C101809116
:10145000A2019091A301A091A401B091A5017901ED
:101460008A01E81AF90A0A0B1B0BD801C7018D8300
:101470009E83AF83B8878091BA019091BB01A09100
:10148000BC01B091BD018093A6019093A701A093E8
:10149000A801B093A9018091BE019091BF01A091D4
:1014A000C001B091C1018093A2019093A301A093C8
:1014B000A401B093A5012D813E814F815885898576
:1014C0009A85AB85BC8579018A01E81AF90A0A0B6D
:1014D0001B0BD801C701BC01CD010E945504DC01E2
:1014E000CB01BC01CD0120E030E048E453E40E9490
:1014F0001903DC01CB01BC01CD0121E338E04CEA4A
:101500005EE30E941F02DC01CB01BC01CD0120E0A3
:1015100030E044EB53E40E941F02DC01CB018983DD
:101520009A83AB83BC8389819A81AB81BC81BC01E6
:10153000CD012C960FB6F894DEBF0FBECDBFCF9174
:10154000DF911F910F91FF90EF900895CF92DF925E
:10155000EF92FF920F931F93DF93CF93CDB7DEB738
:101560006E970FB6F894DEBF0FBECDBF9A8B898BF6
:101570004B8B5C8B6D8B7E8B0F8B188F298F3A8FEB
:10158000FC8EEB8EDE8ECD8E0E946E09DC01CB01CF
:101590008D879E87AF87B88B0E94F509DC01CB0150
:1015A00089879A87AB87BC8789899A892B893C89E7
:1015B0004D895E89ED84FE840F851889BA01A901E1
:1015C000980187010E948507DC01CB018D839E83F2
:1015D000AF83B88789899A8980962F89388D498DFC
:1015E0005A8DE984FA840B851C85BA01A9019801FA
:1015F00087010E948507DC01CB0189839A83AB8335
:10160000BC836D817E818F81988529813A814B8150
:101610005C810E94C101DC01CB01EB8DFC8D8083DC
:101620009183A283B3836D817E818F819885298187
:101630003A814B815C810E94F201DC01CB01ED8D8E
:10164000FE8D80839183A283B3836E960FB6F89448
:10165000DEBF0FBECDBFCF91DF911F910F91FF90E5
:10166000EF90DF90CF900895DF93CF93CDB7DEB7A3
:1016700061970FB6F894DEBF0FBECDBF198A809177
:10168000AF01882F90E0039624E030E0B9010E947A
:10169000B327988B8F878091AF01882F90E00196B8
:1016A00024E030E0B9010E94B3279E878D878F85A3
:1016B0009889880F991FFC01EE56FE4F20813181D9
:1016C0008091AB019091AC01820F931F9C878B8717
:1016D0008F859889880F991FFC01E656FE4F20815F
:1016E00031818091AD019091AE01820F931F9A8755
:1016F00089878D859E85880F991FFC01EE56FE4FC8
:10170000208131818091AB019091AC01820F931FB8
:1017100098878F838D859E85880F991FFC01E656DB
:10172000FE4F208131818091AD019091AE01820FF9
:10173000931F9E838D838091AF01882F90E0880F47
:10174000991FFC01EE56FE4F208131818091AB0143
:101750009091AC01820F931F9C838B838091AF018A
:10176000882F90E0880F991FFC01E656FE4F2081DC
:1017700031818091AD019091AE01820F931F9A83C8
:1017800089830E94BE198823B9F18B859C85992392
:101790009CF18B859C858031910574F589859A85AE
:1017A000992354F189859A85803191052CF58B8593
:1017B0009C8529853A8582959295907F9827807F90
:1017C0009827820F931FFC01E65FFA4F80818130DA
:1017D00099F08B859C8529853A8582959295907F95
:1017E0009827807F9827820F931FFC01E65FFA4FAE
:1017F00081E0808381E0898B0E94EB198823B9F115
:101800008F81988599239CF18F81988580319105EE
:1018100074F58D819E81992354F18D819E81803153
:1018200091052CF58F8198852D813E818295929529
:10183000907F9827807F9827820F931FFC01E65F97
:10184000FA4F8081813099F08F8198852D813E817A
:1018500082959295907F9827807F9827820F931F7B
:10186000FC01E65FFA4F81E0808381E0898B0E9472
:10187000D5198823B9F18B819C8199239CF18B81A7
:101880009C818031910574F589819A81992354F165
:1018900089819A81803191052CF58B819C812981E8
:1018A0003A8182959295907F9827807F9827820F22
:1018B000931FFC01E65FFA4F8081813099F08B81A4
:1018C0009C8129813A8182959295907F9827807F8B
:1018D0009827820F931FFC01E65FFA4F81E0808317
:1018E00081E0898B898961960FB6F894DEBF0FBEBF
:1018F000CDBFCF91DF910895DF93CF93CDB7DEB702
:1019000066970FB6F894DEBF0FBECDBF1A861FC014
:10191000198617C08A85482F50E08985282F30E026
:10192000CA0182959295907F9827807F9827820F91
:10193000931FFC01E65FFB4F8FEF808389858F5FEC
:1019400089878985803130F38A858F5F8A878A8588
:101950008031F0F287E08F8787E0888B88E0898B81
:1019600088E08A8B87E08B8B88E08C8B87E08D8B7F
:1019700088E08E8B1E861D861C861B86188649C0B5
:101980008885282F30E0CE010F96FC01E20FF31F6F
:101990008081482F50E08885282F30E0CE01439683
:1019A000FC01E20FF31F8081282F30E0CA018295ED
:1019B0009295907F9827807F9827820F931FFC0134
:1019C000E65FFB4F10824B855C858885282F30E0D1
:1019D000CE010F96FC01E20FF31F8081FA01E65F52
:1019E000F94F80834B855C858885282F30E0CE01B8
:1019F0004396FC01E20FF31F8081FA01E65FFC4F82
:101A000080838B859C8501969C878B8788858F5FDB
:101A100088878885843008F4B3CFB2C08D859E85D1
:101A2000FC01E65FF94F80818F838D859E85FC01E7
:101A3000E65FFC4F80818E838D859E8501969E8713
:101A40008D871D8299C08F81282F30E08D81882F4E
:101A500090E0880F991FFC01EE56FE4F8081918126
:101A6000820F931F9C838B838E81282F30E08D8182
:101A7000882F90E0880F991FFC01E656FE4F808169
:101A80009181820F931F9A8389838B819C819923F3
:101A90000CF46FC08B819C81803191050CF069C082
:101AA00089819A8199230CF464C089819A8180315B
:101AB00091050CF05EC08B819C8129813A818295D1
:101AC0009295907F9827807F9827820F931FFC0123
:101AD000E65FFA4F8081882309F04BC08B819C819F
:101AE00029813A8182959295907F9827807F9827C7
:101AF000820F931FFC01E65FFB4F80818F3FC9F58A
:101B00006B817C81A981BA818F81482F50E08E81C1
:101B1000282F30E0CA0182959295907F9827807F88
:101B20009827820F931FFC01E65FFB4F8081282FCF
:101B30002F5FCB0182959295907F9827807F982781
:101B40008A0F9B1FFC01E65FFB4F20838B859C85E2
:101B50002B81FC01E65FF94F20838B859C852981D1
:101B6000FC01E65FFC4F20838B859C8501969C875A
:101B70008B878D818F5F8D838D81843008F463CF57
:101B80002D853E858B859C852817390708F446CF1F
:101B900066960FB6F894DEBF0FBECDBFCF91DF9132
:101BA0000895DF93CF93CDB7DEB727970FB6F8949C
:101BB000DEBF0FBECDBF8091AF018F838FEF8E83CD
:101BC0001D8273C08D81882F90E0880F991FFC01C2
:101BD000EE56FE4F208131818091AB019091AC0196
:101BE000820F931F9C838B838D81882F90E0880FB9
:101BF000991FFC01E656FE4F208131818091AD0195
:101C00009091AE01820F931F9A8389838B819C816F
:101C100099230CF447C08B819C81803191050CF095
:101C200041C089819A819923ECF189819A8180311F
:101C30009105C4F58B819C8129813A818295929589
:101C4000907F9827807F9827820F931FFC01E65F83
:101C5000FA4F8081882331F58B819C8129813A81DB
:101C600082959295907F9827807F9827820F931F67
:101C7000FC01E65FFB4F90818E81981798F48B8171
:101C80009C8129813A8182959295907F9827807FC7
:101C90009827820F931FFC01E65FFB4F80818E83A4
:101CA0008D818F838D818F5F8D838D81843008F44A
:101CB00089CF8F8127960FB6F894DEBF0FBECDBFB8
:101CC000CF91DF910895EF92FF920F931F93DF93CF
:101CD000CF93CDB7DEB7A8970FB6F894DEBF0FBE8F
:101CE000CDBF88A788A5882F90E09C012C5F3F4F2F
:101CF0008091AF01882F90E07901E81AF90AC701B5
:101D000024E030E0B9010E94B3278FA38FA188237C
:101D100009F460C180E090E0A0E0B0E08BA39CA358
:101D2000ADA3BEA38FA1813049F480E090E0A4EB85
:101D3000B2E48BA39CA3ADA3BEA314C08FA1833038
:101D400049F480E090E0A4EBB2EC8BA39CA3ADA39C
:101D5000BEA308C080E090E0A4E3B3E48BA39CA3FF
:101D6000ADA3BEA380E090E0A0E0B0E08093B2011C
:101D70009093B301A093B401B093B5018BA19CA142
:101D8000ADA1BEA18093B6019093B701A093B80115
:101D9000B093B9018091BA019091BB01A091BC01AF
:101DA000B091BD018F8F98A3A9A3BAA38091BE0162
:101DB0009091BF01A091C001B091C1018B8F9C8F08
:101DC000AD8FBE8F80E090E0A0E0B0E08F8B988F69
:101DD000A98FBA8FDAC02091BA013091BB0140912E
:101DE000BC015091BD018F8D98A1A9A1BAA1790123
:101DF0008A01E81AF90A0A0B1B0BD801C7018B8B61
:101E00009C8BAD8BBE8B2091BE013091BF01409168
:101E1000C0015091C1018B8D9C8DAD8DBE8D79011E
:101E20008A01E81AF90A0A0B1B0BD801C7018F8730
:101E3000988BA98BBA8B2F85388949895A898B89C8
:101E40009C89AD89BE8979018A01E81AF90A0A0BD1
:101E50001B0BD801C701BC01CD010E945504DC0158
:101E6000CB01BC01CD0120E030E048E453E40E9406
:101E70001903DC01CB01BC01CD012AE939E949E1B3
:101E80005FE30E941F02DC01CB01BC01CD0120E019
:101E900030E044EB53E40E941F02DC01CB018F8B46
:101EA000988FA98FBA8F80E090E0A0EAB0E48B878A
:101EB0009C87AD87BE876B857C858D859E8520E060
:101EC00030E04AE755E40E941F02DC01CB018F831A
:101ED0009887A987BA876F81788589859A8520E058
:101EE00030E040E85FE30E94250488232CF481E081
:101EF00090E09E838D833FC06F81788589859A8528
:101F000020E03FEF4FE757E40E94C50318164CF559
:101F10006B857C858D859E8520E030E040E251E434
:101F20000E941F02DC01CB01BC01CD010E944900CF
:101F3000DC01CB019E838D830FC080E991E09C83FF
:101F40008B838B819C810197F1F79C838B838D819F
:101F50009E8101979E838D838D819E81009769F775
:101F600014C06F81788589859A850E944900DC01BB
:101F7000CB019E838D838D819E819A838983898104
:101F80009A810197F1F79A8389838F89988DA98D1A
:101F9000BA8D7C018D01E89417F98BA19CA1ADA1AC
:101FA000BEA19C01AD015F77C801B7010E94250465
:101FB00088230CF410CF80E090E0A0E0B0E08093A4
:101FC000B6019093B701A093B801B093B90188A569
:101FD0008093AF01A8960FB6F894DEBF0FBECDBFB9
:101FE000CF91DF911F910F91FF90EF900895AF92E5
:101FF000BF92CF92DF92EF92FF920F931F93DF93E6
:10200000CF93CDB7DEB76E970FB6F894DEBF0FBE95
:10201000CDBF80E090E0A8ECB2E48093B201909351
:10202000B301A093B401B093B50180E090E0A0E0CB
:10203000B0E08093B6019093B701A093B801B0933C
:10204000B9018091BA019091BB01A091BC01B091FE
:10205000BD018B8F9C8FAD8FBE8F8091BE01909103
:10206000BF01A091C001B091C1018F8B988FA98F42
:10207000BA8F80E090E0A0E0B0E08B8B9C8BAD8BC2
:10208000BE8BC0C02091BA013091BB014091BC0110
:102090005091BD018B8D9C8DAD8DBE8D79018A01D6
:1020A000E81AF90A0A0B1B0B2091BE013091BF01FF
:1020B0004091C0015091C1018F89988DA98DBA8D31
:1020C00059016A01A81AB90ACA0ADB0AD601C50170
:1020D0008E0D9F1DA01FB11F22E030E040E050E0B8
:1020E000BC01CD010E94C627DA01C9018F87988BF8
:1020F000A98BBA8B6F85788989899A890E94550442
:10210000DC01CB01BC01CD012AE336E441E75FE30A
:102110000E941F02DC01CB018B8B9C8BAD8BBE8B95
:1021200080E090E0A0EAB0E48B879C87AD87BE8713
:102130006B857C858D859E8520E030E04AE755E4FF
:102140000E941F02DC01CB018F839887A987BA8781
:102150006F81788589859A8520E030E040E85FE3EB
:102160000E94250488232CF481E090E09E838D83D7
:102170003FC06F81788589859A8520E03FEF4FE7E2
:1021800057E40E94C50318164CF56B857C858D8538
:102190009E8520E030E040E251E40E941F02DC0115
:1021A000CB01BC01CD010E944900DC01CB019E8323
:1021B0008D830FC080E991E09C838B838B819C8110
:1021C0000197F1F79C838B838D819E8101979E837C
:1021D0008D838D819E81009769F714C06F8178850A
:1021E00089859A850E944900DC01CB019E838D83FD
:1021F0008D819E819A83898389819A810197F1F7E4
:102200009A8389836B897C898D899E8920E030E05F
:1022100044E353E40E94250488230CF433CF80E088
:1022200090E0A0E0B0E08093B2019093B301A0935E
:10223000B401B093B5018091AF01882F90E0880F71
:10224000991FFC01EE56FE4F208131818091AB0138
:102250009091AC01820F931F9093AC018093AB01DE
:102260008091AF01882F90E0880F991FFC01E656FE
:10227000FE4F208131818091AD019091AE01820F9E
:10228000931F9093AE018093AD016E960FB6F894B4
:10229000DEBF0FBECDBFCF91DF911F910F91FF9099
:1022A000EF90DF90CF90BF90AF900895DF93CF93E2
:1022B000CDB7DEB7CA51D4400FB6F894DEBF0FBE1B
:1022C000CDBFFE01E95EFB4F91838083FE01E75E97
:1022D000FB4F718360831092B1011092B0011E8A8E
:1022E0001D8A1C8A1B8AFE01E95EFB4F8081918159
:1022F0009A8B898BFE01E75EFB4F80819181988BE1
:102300008F8789899A892F85388982959295907FC0
:102310009827807F9827820F931FFC01E65FFB4F71
:1023200080818F3F09F421C11E861D868D899E897B
:102330009C878B878B899C899A878987CAC08FEFF6
:1023400088871F825AC08F81882F90E0880F991F3D
:10235000FC01EE56FE4F208131818B859C85820FDA
:10236000931F9E838D838F81882F90E0880F991F04
:10237000FC01E656FE4F2081318189859A85820FC6
:10238000931F9C838B838D819E8199239CF18D81EA
:102390009E818031910574F58B819C81992354F144
:1023A0008B819C81803191052CF58D819E812B81C3
:1023B0003C8182959295907F9827807F9827820F05
:1023C000931FFC01E65FFB4F40818B859C8529852F
:1023D0003A8582959295907F9827807F9827820FE3
:1023E000931FFC01E65FFB4F8081481718F48F8133
:1023F000888707C08F818F5F8F838F81843008F437
:10240000A2CF88858F3F09F474C06D857E8588854D
:10241000882F90E0880F991FFC01EE56FE4F208117
:1024200031818B859C85A901480F591F9B01220F83
:10243000331FCE010196820F931FFC0176965183C4
:1024400040836D857E858885882F90E0880F991F51
:10245000FC01E656FE4F2081318189859A85A901CC
:10246000480F591F9E01295E3D4FCB01880F991FD0
:10247000F901E80FF91F518340838D859E85FC018A
:10248000E65FF84F888580838D859E8501969E87BF
:102490008D878885882F90E0880F991FFC01EE5664
:1024A000FE4F208131818B859C85820F931F9C87F5
:1024B0008B878885882F90E0880F991FFC01E6564E
:1024C000FE4F2081318189859A85820F931F9A87DB
:1024D00089872B853C8589899A892817390709F0CE
:1024E0002ECF29853A858F8598892817390709F0D5
:1024F00026CF8D859E859093B1018093B0011A827D
:1025000019822AC049815A8189819A819C01220FAE
:10251000331FCE010196820F931FFC0176968081B6
:102520009181FA01E653FE4F808349815A81898166
:102530009A819E01295E3D4F880F991FF901E80F8E
:10254000F91F80819181FA01E65FF74F80838981CD
:102550009A8101969A83898329813A818091B00179
:102560009091B1012817390768F2C65EDB4F0FB6AC
:10257000F894DEBF0FBECDBFCF91DF910895DF93FA
:10258000CF93CDB7DEB7EE970FB6F894DEBF0FBE90
:10259000CDBF0E94F62480E690E00E944F2480E0A8
:1025A00090E0A6E9B3E48FA398A7A9A7BAA76FA163
:1025B00078A589A59AA520E030E04AE755E40E9475
:1025C0001F02DC01CB018BA39CA3ADA3BEA36BA117
:1025D0007CA18DA19EA120E030E040E85FE30E9455
:1025E000250488232CF481E090E09AA389A33FC0BE
:1025F0006BA17CA18DA19EA120E03FEF4FE757E4A6
:102600000E94C50318164CF56FA178A589A59AA557
:1026100020E030E040E251E40E941F02DC01CB01E7
:10262000BC01CD010E944900DC01CB019AA389A322
:102630000FC080E991E098A38F8F8F8D98A10197AB
:10264000F1F798A38F8F89A19AA101979AA389A3E3
:1026500089A19AA1009769F714C06BA17CA18DA1F3
:102660009EA10E944900DC01CB019AA389A389A104
:102670009AA19E8F8D8F8D8D9E8D0197F1F79E8FE4
:102680008D8FF8941092AC011092AB011092AE01B4
:102690001092AD011092AF011DA61CA6BDC08CA565
:1026A0009DA5FC01E65FF84F80818BA78BA50E945A
:1026B000630E0E94F70F2091AB013091AC01409165
:1026C000AD015091AE018BA5682F70E08DB79EB71C
:1026D0000C970FB6F8949EBF0FBE8DBFEDB7FEB737
:1026E0003196CE018E969183808381E190E0938331
:1026F00082838DE690E09583848337832683518798
:102700004087738762870E946F288DB79EB70C96AB
:102710000FB6F8949EBF0FBE8DBF9E01225D3F4F46
:1027200081E060E0A9010E94BA2480E090E0A0EA84
:10273000B2E4898F9A8FAB8FBC8F698D7A8D8B8D28
:102740009C8D20E030E04AE755E40E941F02DC0146
:10275000CB018D8B9E8BAF8BB88F6D897E898F89D6
:10276000988D20E030E040E85FE30E942504882354
:102770002CF481E090E09C8B8B8B3FC06D897E892F
:102780008F89988D20E03FEF4FE757E40E94C50303
:1027900018164CF5698D7A8D8B8D9C8D20E030E07C
:1027A00040E251E40E941F02DC01CB01BC01CD01DB
:1027B0000E944900DC01CB019C8B8B8B0FC080E910
:1027C00091E09A8B898B89899A890197F1F79A8B85
:1027D000898B8B899C8901979C8B8B8B8B899C899E
:1027E000009769F714C06D897E898F89988D0E9442
:1027F0004900DC01CB019C8B8B8B8B899C89988B4E
:102800008F878F8598890197F1F7988B8F878CA593
:102810009DA501969DA78CA72091B0013091B10193
:102820008CA59DA58217930708F439CF81E060E05D
:102830000E94CC1881E060E00E9430192EE730E061
:1028400080E060E0A9010E94BA2480E090E0AAEF55
:10285000B3E48B879C87AD87BE876B857C858D8530
:102860009E8520E030E04AE755E40E941F02DC012B
:10287000CB018F839887A987BA876F8178858985EF
:102880009A8520E030E040E85FE30E942504882339
:102890002CF481E090E09E838D833FC06F8178852A
:1028A00089859A8520E03FEF4FE757E40E94C503F2
:1028B00018164CF56B857C858D859E8520E030E073
:1028C00040E251E40E941F02DC01CB01BC01CD01BA
:1028D0000E944900DC01CB019E838D830FC080E9FB
:1028E00091E09C838B838B819C810197F1F79C8382
:1028F0008B838D819E8101979E838D838D819E81A7
:10290000009769F714C06F81788589859A850E9440
:102910004900DC01CB019E838D838D819E819A834A
:10292000898389819A810197F1F79A8389837894C1
:10293000EE960FB6F894DEBF0FBECDBFCF91DF91FC
:1029400008951F920F920FB60F9211242F933F9369
:102950004F935F936F937F938F939F93AF93BF93A7
:10296000EF93FF93DF93CF93CDB7DEB78091AA01AA
:10297000882311F00E94BF12CF91DF91FF91EF9158
:10298000BF91AF919F918F917F916F915F914F9187
:102990003F912F910F900FBE0F901F901895DF93CE
:1029A000CF93CDB7DEB7A1E3B0E0E1E3F0E0808103
:1029B0008B7F8C93A2E3B0E0E2E3F0E0808184605F
:1029C0008C93ABE5B0E0EBE5F0E0808180648C9324
:1029D000A5E5B0E0E5E5F0E0808182608C93A5E5B7
:1029E000B0E0E5E5F0E080818E7F8C93CF91DF91C0
:1029F0000895DF93CF93CDB7DEB7A1E3B0E0E1E375
:102A0000F0E08081877F8C93A2E3B0E0E2E3F0E026
:102A1000808188608C93ABE5B0E0EBE5F0E08081ED
:102A200080688C93A5E5B0E0E5E5F0E08081826008
:102A30008C93A5E5B0E0E5E5F0E080818E7F8C9396
:102A4000CF91DF910895DF93CF93CDB7DEB7A1E3A8
:102A5000B0E0E1E3F0E080818B7F8C93A2E3B0E013
:102A6000E2E3F0E0808184608C93ABE5B0E0EBE5DD
:102A7000F0E0808180628C93A5E5B0E0E5E5F0E0D0
:102A8000808182608C93A5E5B0E0E5E5F0E080818F
:102A90008E7F8C93CF91DF910895DF93CF9300D0F9
:102AA00000D00F92CDB7DEB789836A834B838A81CA
:102AB000883008F0D5C08981843008F0D1C0898180
:102AC000282F30E03D832C838C819D8181309105BE
:102AD00009F443C02C813D81223031052CF48C81D6
:102AE0009D81009771F0BCC02C813D812230310561
:102AF00009F45FC08C819D818330910509F485C004
:102B0000AFC08B818130A1F4AAE3B0E0EAE3F0E04A
:102B10008081482F8A81282F30E081E090E0022ECA
:102B200002C0880F991F0A94E2F7842B8C9398C0F7
:102B3000AAE3B0E0EAE3F0E08081482F8A81282F01
:102B400030E081E090E0022E02C0880F991F0A94C5
:102B5000E2F7809584238C9383C08B818130A1F42C
:102B6000A7E3B0E0E7E3F0E08081482F8A81282FD7
:102B700030E081E090E0022E02C0880F991F0A9495
:102B8000E2F7842B8C936CC0A7E3B0E0E7E3F0E0BE
:102B90008081482F8A81282F30E081E090E0022E4A
:102BA00002C0880F991F0A94E2F7809584238C93C2
:102BB00057C08B818130A1F4A4E3B0E0E4E3F0E0FE
:102BC0008081482F8A81282F30E081E090E0022E1A
:102BD00002C0880F991F0A94E2F7842B8C9340C09F
:102BE000A4E3B0E0E4E3F0E08081482F8A81282F5D
:102BF00030E081E090E0022E02C0880F991F0A9415
:102C0000E2F7809584238C932BC08B818130A1F4D3
:102C1000A1E3B0E0E1E3F0E08081482F8A81282F32
:102C200030E081E090E0022E02C0880F991F0A94E4
:102C3000E2F7842B8C9314C0A1E3B0E0E1E3F0E071
:102C40008081482F8A81282F30E081E090E0022E99
:102C500002C0880F991F0A94E2F7809584238C9311
:102C60000F900F900F900F900F90CF91DF910895DC
:102C7000DF93CF9300D000D00F92CDB7DEB789831A
:102C80006A834B838A81883008F0D5C0898184307B
:102C900008F0D1C08981282F30E03D832C838C81BE
:102CA0009D818130910509F443C02C813D81223002
:102CB00031052CF48C819D81009771F0BCC02C8172
:102CC0003D812230310509F45FC08C819D818330C4
:102CD000910509F485C0AFC08B818823A1F4ABE3D3
:102CE000B0E0EBE3F0E08081482F8A81282F30E0CC
:102CF00081E090E0022E02C0880F991F0A94E2F74B
:102D0000842B8C9398C0ABE3B0E0EBE3F0E08081E0
:102D1000482F8A81282F30E081E090E0022E02C007
:102D2000880F991F0A94E2F7809584238C9383C0BF
:102D30008B818823A1F4A8E3B0E0E8E3F0E0808190
:102D4000482F8A81282F30E081E090E0022E02C0D7
:102D5000880F991F0A94E2F7842B8C936CC0A8E328
:102D6000B0E0E8E3F0E08081482F8A81282F30E04E
:102D700081E090E0022E02C0880F991F0A94E2F7CA
:102D8000809584238C9357C08B818823A1F4A5E37D
:102D9000B0E0E5E3F0E08081482F8A81282F30E021
:102DA00081E090E0022E02C0880F991F0A94E2F79A
:102DB000842B8C9340C0A5E3B0E0E5E3F0E0808194
:102DC000482F8A81282F30E081E090E0022E02C057
:102DD000880F991F0A94E2F7809584238C932BC067
:102DE0008B818823A1F4A2E3B0E0E2E3F0E08081EC
:102DF000482F8A81282F30E081E090E0022E02C027
:102E0000880F991F0A94E2F7842B8C9314C0A2E3D5
:102E1000B0E0E2E3F0E08081482F8A81282F30E0A3
:102E200081E090E0022E02C0880F991F0A94E2F719
:102E3000809584238C930F900F900F900F900F909C
:102E4000CF91DF910895DF93CF9300D000D00F9200
:102E5000CDB7DEB78A836B8381E089838B8188302D
:102E600008F084C08A81843008F080C08A81282FCD
:102E700030E03D832C834C815D814130510579F1F7
:102E80008C819D818230910534F42C813D81211506
:102E9000310569F06BC04C815D8142305105B9F15B
:102EA0008C819D818330910509F449C05FC0E9E3BD
:102EB000F0E08081282F30E08B81882F90E0A901FD
:102EC00002C0559547958A95E2F7CA0181709070C6
:102ED000882311F019824AC081E0898347C0E6E364
:102EE000F0E08081282F30E08B81882F90E0A901CD
:102EF00002C0559547958A95E2F7CA018170907096
:102F0000882311F0198232C081E089832FC0E3E366
:102F1000F0E08081282F30E08B81882F90E0A9019C
:102F200002C0559547958A95E2F7CA018170907065
:102F3000882311F019821AC081E0898317C0E0E369
:102F4000F0E08081282F30E08B81882F90E0A9016C
:102F500002C0559547958A95E2F7CA018170907035
:102F6000882311F0198202C081E0898389810F9042
:102F70000F900F900F900F90CF91DF910895DF93F6
:102F8000CF9300D000D0CDB7DEB789836A83898123
:102F9000843090F58981282F30E03C832B838B810E
:102FA0009C8181309105D1F02B813C81223031050B
:102FB0002CF48B819C81009761F01EC02B813C8199
:102FC0002230310581F08B819C818330910581F025
:102FD00013C0EAE3F0E08A8180830EC0E7E3F0E00B
:102FE0008A81808309C0E4E3F0E08A81808304C0A1
:102FF000E1E3F0E08A8180830F900F900F900F90B3
:10300000CF91DF910895DF93CF9300D000D0CDB75B
:10301000DEB789836A838981843090F58981282F7E
:1030200030E03C832B838B819C8181309105D1F0F2
:103030002B813C81223031052CF48B819C810097BF
:1030400061F01EC02B813C812230310581F08B81E3
:103050009C818330910581F013C0EBE3F0E08A811D
:1030600080830EC0E8E3F0E08A81808309C0E5E355
:10307000F0E08A81808304C0E2E3F0E08A8180830B
:103080000F900F900F900F90CF91DF910895DF93E5
:10309000CF9300D000D0CDB7DEB78A8381E089839B
:1030A0008A81843090F58A81282F30E03C832B83FD
:1030B0008B819C8181309105D1F02B813C81223024
:1030C00031052CF48B819C81009761F01EC02B810F
:1030D0003C812230310581F08B819C8183309105C8
:1030E00081F013C0E9E3F0E0808189830EC0E6E35C
:1030F000F0E08081898309C0E3E3F0E08081898387
:1031000004C0E0E3F0E08081898389810F900F9013
:103110000F900F90CF91DF910895DF93CF93CDB7AC
:10312000DEB7A1E3B0E0E1E3F0E0808183608C935F
:10313000A1E3B0E0E1E3F0E0808180618C93A2E361
:10314000B0E0E2E3F0E080818C7F8C93A1E3B0E01B
:10315000E1E3F0E0808184648C93A1E3B0E0E1E3FB
:10316000F0E0808180628C93A2E3B0E0E2E3F0E0E3
:1031700080818B7B8C93AFE4B0E0EFE4F0E0808162
:10318000816A8C93AEE4B0E0EEE4F0E080818A6086
:103190008C93CF91DF910895DF93CF9300D000D02F
:1031A000CDB7DEB789836A838981282F30E03C83DD
:1031B0002B838B819C818130910589F02B813C810F
:1031C00022303105D9F08B819C81009729F5A2E34B
:1031D000B0E0E2E3F0E080818C7F8C931DC0A2E33D
:1031E000B0E0E2E3F0E0808181608C93A2E3B0E0A4
:1031F000E2E3F0E080818D7F8C930EC0A2E3B0E02B
:10320000E2E3F0E0808182608C93A2E3B0E0E2E34D
:10321000F0E080818E7F8C93E8E4F0E08A81482F93
:1032200050E0CA019C01220F331FC9019695982FC7
:10323000882797958795821B930B840F951F24E60B
:1032400030E0B9010E94B327CB01882F90E0918331
:1032500080830F900F900F900F90CF91DF91089582
:10326000DF93CF9300D000D0CDB7DEB789836A83D8
:103270008981282F30E03C832B838B819C81813096
:10328000910589F02B813C8122303105D9F08B8169
:103290009C81009729F5A2E3B0E0E2E3F0E08081B1
:1032A0008B7B8C931DC0A2E3B0E0E2E3F0E0808171
:1032B00084608C93A2E3B0E0E2E3F0E080818F7B56
:1032C0008C930EC0A2E3B0E0E2E3F0E08081806482
:1032D0008C93A2E3B0E0E2E3F0E080818B7F8C93FB
:1032E000EAE4F0E08A81482F50E0CA019C01220FF5
:1032F000331FC9019695982F882797958795821B2C
:10330000930B840F951F24E630E0B9010E94B32788
:10331000CB01882F90E0918380830F900F900F90C6
:103320000F90CF91DF910895DF93CF93CDB7DEB7A4
:10333000A4E3B0E0E4E3F0E080818E7F8C93CF9152
:10334000DF910895DF93CF93CDB7DEB7A4E3B0E06C
:10335000E4E3F0E080818B7F8C93CF91DF9108953F
:10336000DF93CF93CDB7DEB7A4E3B0E0E4E3F0E0C2
:1033700080818F778C93CF91DF910895DF93CF93E6
:103380000F92CDB7DEB7E3E3F0E08081882F90E0C5
:1033900081709070882311F0198202C081E08983C6
:1033A00089810F90CF91DF910895DF93CF930F9292
:1033B000CDB7DEB7E3E3F0E08081882F90E0847042
:1033C00090701982009711F481E0898389810F90B0
:1033D000CF91DF910895DF93CF930F92CDB7DEB7F2
:1033E000E3E3F0E080811982882314F081E089838F
:1033F00089810F90CF91DF910895EF92FF920F9303
:103400001F93DF93CF93CDB7DEB72A970FB6F8940B
:10341000DEBF0FBECDBF9A87898789859A8501E077
:103420008A3B900769F52091BA013091BB01409128
:10343000BC015091BD018091C6019091C701A0913E
:10344000C801B091C90179018A01E81AF90A0A0B89
:103450001B0BD801C7018D839E83AF83B8878091F2
:10346000BA019091BB01A091BC01B091BD018093C4
:10347000C6019093C701A093C801B093C9012CC0A5
:103480002091BE013091BF014091C0015091C10116
:103490008091C2019091C301A091C401B091C50176
:1034A00079018A01E81AF90A0A0B1B0BD801C70136
:1034B0008D839E83AF83B8878091BE019091BF01B9
:1034C000A091C001B091C1018093C2019093C3014A
:1034D000A093C401B093C5016D817E818F819885D1
:1034E0000E945504DC01CB01BC01CD0120E030E09D
:1034F00048E453E40E941903DC01CB0189839A83D9
:10350000AB83BC8369817A818B819C812AE037ED12
:1035100043EA5CE30E941903DC01CB01BC01CD014D
:1035200020E030E040E752E40E941F02DC01CB01C2
:10353000BC01CD012A960FB6F894DEBF0FBECDBFF9
:10354000CF91DF911F910F91FF90EF900895DF933E
:10355000CF93CDB7DEB72E970FB6F894DEBF0FBE70
:10356000CDBF80E061E041E00E944D1580E062E067
:1035700041E00E944D1580E090E0A0EAB1E48B8725
:103580009C87AD87BE876B857C858D859E8520E079
:1035900030E04AE755E40E941F02DC01CB018F8333
:1035A0009887A987BA876F81788589859A8520E071
:1035B00030E040E85FE30E94250488232CF481E09A
:1035C00090E09E838D833FC06F81788589859A8541
:1035D00020E03FEF4FE757E40E94C50318164CF573
:1035E0006B857C858D859E8520E030E040E251E44E
:1035F0000E941F02DC01CB01BC01CD010E944900E9
:10360000DC01CB019E838D830FC080E991E09C8318
:103610008B838B819C810197F1F79C838B838D81B8
:103620009E8101979E838D838D819E81009769F78E
:1036300014C06F81788589859A850E944900DC01D4
:10364000CB019E838D838D819E819A83898389811D
:103650009A810197F1F79A83898380E063E041E0E2
:103660000E944D1580E064E041E00E944D1580E02D
:1036700065E041E00E944D1580E066E041E00E9477
:103680004D1583E30E94591B82E30E94591B88E277
:103690000E94591B8CE00E94591B81E00E94591B1B
:1036A0002E960FB6F894DEBF0FBECDBFCF91DF913F
:1036B00008950F931F93DF93CF93CDB7DEB7C35613
:1036C000D0400FB6F894DEBF0FBECDBFFE01ED595E
:1036D000FF4F808380E061E041E00E943816FE01E8
:1036E000E15AFF4F80E090E0A0E8BFE38083918340
:1036F000A283B3838E01055A1F4FFE01E15AFF4F8B
:10370000608171818281938120E030E04AE755E455
:103710000E941F02DC01CB01F80180839183A28308
:10372000B383FE01E55AFF4F6081718182819381ED
:1037300020E030E040E85FE30E942504882344F461
:10374000FE01E75AFF4F81E090E09183808364C0DF
:10375000FE01E55AFF4F608171818281938120E0F3
:103760003FEF4FE757E40E94C50318160CF043C023
:10377000FE01E15AFF4F608171818281938120E0D7
:1037800030E040E251E40E941F02DC01CB018E01D7
:10379000075A1F4FBC01CD010E944900DC01CB013B
:1037A000F801918380831FC0FE01E95AFF4F80E931
:1037B00091E091838083FE01E95AFF4F80819181DE
:1037C0000197F1F7FE01E95AFF4F91838083DE01F3
:1037D000A75ABF4FFE01E75AFF4F808191810197A1
:1037E00011969C938E93FE01E75AFF4F8081918141
:1037F0000097D1F627C08E01075A1F4FFE01E55AE8
:10380000FF4F60817181828193810E944900DC01B8
:10381000CB01F80191838083DE01AB5ABF4FFE01DB
:10382000E75AFF4F808191818D939C93FE01EB5A63
:10383000FF4F808191810197F1F7FE01EB5AFF4F15
:103840009183808380E062E040E00E943816FE01B0
:10385000EF5AFF4F80E090E0A0E8BFE380839183C0
:10386000A283B3838E01035B1F4FFE01EF5AFF4F0C
:10387000608171818281938120E030E04AE755E4E4
:103880000E941F02DC01CB01F80180839183A28397
:10389000B383FE01E35BFF4F60817181828193817D
:1038A00020E030E040E85FE30E942504882344F4F0
:1038B000FE01E55BFF4F81E090E09183808364C06F
:1038C000FE01E35BFF4F608171818281938120E083
:1038D0003FEF4FE757E40E94C50318160CF043C0B2
:1038E000FE01EF5AFF4F608171818281938120E058
:1038F00030E040E251E40E941F02DC01CB018E0166
:10390000055B1F4FBC01CD010E944900DC01CB01CA
:10391000F801918380831FC0FE01E75BFF4F80E9C0
:1039200091E091838083FE01E75BFF4F808191816D
:103930000197F1F7FE01E75BFF4F91838083DE0182
:10394000A55BBF4FFE01E55BFF4F80819181019731
:1039500011969C938E93FE01E55BFF4F80819181D0
:103960000097D1F627C08E01055B1F4FFE01E35B78
:10397000FF4F60817181828193810E944900DC0147
:10398000CB01F80191838083DE01A95BBF4FFE016B
:10399000E55BFF4F808191818D939C93FE01E95BF4
:1039A000FF4F808191810197F1F7FE01E95BFF4FA5
:1039B00091838083FE01ED59FF4F8081882F90E035
:1039C0008071907095958795959587959595879534
:1039D00095958795982F80E063E0492F0E943816CF
:1039E000FE01ED59FF4F8081882F90E0807290702A
:1039F00095958795959587959595879595958795AF
:103A000095958795982F80E064E0492F0E9438169D
:103A1000FE01ED59FF4F8081882F90E080749070F7
:103A2000082E892F000C881F990B000C881F991FE6
:103A3000982F80E065E0492F0E943816FE01ED596D
:103A4000FF4F8081982F991F9927991F80E066E08A
:103A5000492F0E943816FE01ED5BFF4F80E090E099
:103A6000A0E8BFE380839183A283B3838E01015CCE
:103A70001F4FFE01ED5BFF4F608171818281938159
:103A800020E030E04AE755E40E941F02DC01CB0150
:103A9000F80180839183A283B383FE01FF96608146
:103AA00071818281938120E030E040E85FE30E94F1
:103AB000250488232CF481E090E09EAF8DAF46C0B2
:103AC000FE01FF96608171818281938120E03FEF4A
:103AD0004FE757E40E94C503181664F5FE01ED5B3D
:103AE000FF4F608171818281938120E030E040E26C
:103AF00051E40E941F02DC01CB01BC01CD010E94F8
:103B00004900DC01CB019EAF8DAF0FC080E991E091
:103B10009CAF8BAF8BAD9CAD0197F1F79CAF8BAF9A
:103B20008DAD9EAD01979EAF8DAF8DAD9EAD0097D3
:103B300069F716C0FE01FF966081718182819381D1
:103B40000E944900DC01CB019EAF8DAF8DAD9EADD3
:103B50009AAF89AF89AD9AAD0197F1F79AAF89AF66
:103B600080E062E041E00E94381680E090E0A0E84A
:103B7000BFE38DAB9EABAFABB8AF6DA97EA98FA9EC
:103B800098AD20E030E04AE755E40E941F02DC01D6
:103B9000CB0189AB9AABABABBCAB69A97AA98BA9BA
:103BA0009CA920E030E040E85FE30E9425048823E0
:103BB0002CF481E090E098AB8FA73FC069A97AA967
:103BC0008BA99CA920E03FEF4FE757E40E94C50373
:103BD00018164CF56DA97EA98FA998AD20E030E0AC
:103BE00040E251E40E941F02DC01CB01BC01CD0187
:103BF0000E944900DC01CB0198AB8FA70FC080E980
:103C000091E09EA78DA78DA59EA50197F1F79EA790
:103C10008DA78FA598A9019798AB8FA78FA598A975
:103C2000009769F714C069A97AA98BA99CA90E9479
:103C30004900DC01CB0198AB8FA78FA598A99CA761
:103C40008BA78BA59CA50197F1F79CA78BA780E07C
:103C500062E040E00E94381680E090E0A0E8BFE318
:103C60008FA398A7A9A7BAA76FA178A589A59AA598
:103C700020E030E04AE755E40E941F02DC01CB015E
:103C80008BA39CA3ADA3BEA36BA17CA18DA19EA180
:103C900020E030E040E85FE30E94250488232CF414
:103CA00081E090E09AA389A33FC06BA17CA18DA184
:103CB0009EA120E03FEF4FE757E40E94C50318168E
:103CC0004CF56FA178A589A59AA520E030E040E2E7
:103CD00051E40E941F02DC01CB01BC01CD010E9416
:103CE0004900DC01CB019AA389A30FC080E991E0D0
:103CF00098A38F8F8F8D98A10197F1F798A38F8F3D
:103D000089A19AA101979AA389A389A19AA1009751
:103D100069F714C06BA17CA18DA19EA10E944900EE
:103D2000DC01CB019AA389A389A19AA19E8F8D8FD3
:103D30008D8D9E8D0197F1F79E8F8D8FFE01ED5930
:103D4000FF4F8081982F917080E063E0492F0E949F
:103D50003816FE01ED59FF4F8081882F90E0827068
:103D6000907095958795982F80E064E0492F0E9488
:103D70003816FE01ED59FF4F8081882F90E0847046
:103D800090709595879595958795982F80E065E03B
:103D9000492F0E943816FE01ED59FF4F8081882F70
:103DA00090E08870907095958795959587959595F5
:103DB0008795982F80E066E0492F0E94381680E0B2
:103DC00090E0A0E8BFE3898F9A8FAB8FBC8F698D9D
:103DD0007A8D8B8D9C8D20E030E04AE755E40E947F
:103DE0001F02DC01CB018D8B9E8BAF8BB88F6D8951
:103DF0007E898F89988D20E030E040E85FE30E9463
:103E0000250488232CF481E090E09C8B8B8B3FC0B1
:103E10006D897E898F89988D20E03FEF4FE757E4C9
:103E20000E94C50318164CF5698D7A8D8B8D9C8D7B
:103E300020E030E040E251E40E941F02DC01CB01AF
:103E4000BC01CD010E944900DC01CB019C8B8B8B16
:103E50000FC080E991E09A8B898B89899A890197B3
:103E6000F1F79A8B898B8B899C8901979C8B8B8B23
:103E70008B899C89009769F714C06D897E898F8929
:103E8000988D0E944900DC01CB019C8B8B8B8B8928
:103E90009C89988B8F878F8598890197F1F7988BEC
:103EA0008F8780E062E041E00E94381680E090E079
:103EB000A0E8BFE38B879C87AD87BE876B857C8539
:103EC0008D859E8520E030E04AE755E40E941F0280
:103ED000DC01CB018F839887A987BA876F817885AA
:103EE00089859A8520E030E040E85FE30E94250460
:103EF00088232CF481E090E09E838D833FC06F8106
:103F0000788589859A8520E03FEF4FE757E40E9446
:103F1000C50318164CF56B857C858D859E8520E044
:103F200030E040E251E40E941F02DC01CB01BC0101
:103F3000CD010E944900DC01CB019E838D830FC01F
:103F400080E991E09C838B838B819C810197F1F7C1
:103F50009C838B838D819E8101979E838D838D8130
:103F60009E81009769F714C06F81788589859A854D
:103F70000E944900DC01CB019E838D838D819E814F
:103F80009A83898389819A810197F1F79A8389833A
:103F9000CD59DF4F0FB6F894DEBF0FBECDBFCF9126
:103FA000DF911F910F9108950F931F93DF93CF938C
:103FB000CDB7DEB7C356D0400FB6F894DEBF0FBE04
:103FC000CDBFFE01ED59FF4F808380E061E040E00E
:103FD0000E943816FE01E15AFF4F80E090E0A0E811
:103FE000BFE380839183A283B3838E01055A1F4F61
:103FF000FE01E15AFF4F608171818281938120E04F
:1040000030E04AE755E40E941F02DC01CB01F801D1
:1040100080839183A283B383FE01E55AFF4F6081C1
:1040200071818281938120E030E040E85FE30E946B
:104030002504882344F4FE01E75AFF4F81E090E015
:104040009183808364C0FE01E55AFF4F60817181D6
:104050008281938120E03FEF4FE757E40E94C50340
:1040600018160CF043C0FE01E15AFF4F60817181C8
:104070008281938120E030E040E251E40E941F02FF
:10408000DC01CB018E01075A1F4FBC01CD010E94FC
:104090004900DC01CB01F801918380831FC0FE0140
:1040A000E95AFF4F80E991E091838083FE01E95A4C
:1040B000FF4F808191810197F1F7FE01E95AFF4F8F
:1040C00091838083DE01A75ABF4FFE01E75AFF4F5D
:1040D00080819181019711969C938E93FE01E75AFE
:1040E000FF4F808191810097D1F627C08E01075A3A
:1040F0001F4FFE01E55AFF4F6081718182819381DC
:104100000E944900DC01CB01F80191838083DE012C
:10411000AB5ABF4FFE01E75AFF4F808191818D93CB
:104120009C93FE01EB5AFF4F808191810197F1F73B
:10413000FE01EB5AFF4F9183808380E062E040E014
:104140000E943816FE01EF5AFF4F80E090E0A0E891
:10415000BFE380839183A283B3838E01035B1F4FF0
:10416000FE01EF5AFF4F608171818281938120E0CF
:1041700030E04AE755E40E941F02DC01CB01F80160
:1041800080839183A283B383FE01E35BFF4F608151
:1041900071818281938120E030E040E85FE30E94FA
:1041A0002504882344F4FE01E55BFF4F81E090E0A5
:1041B0009183808364C0FE01E35BFF4F6081718166
:1041C0008281938120E03FEF4FE757E40E94C503CF
:1041D00018160CF043C0FE01EF5AFF4F6081718149
:1041E0008281938120E030E040E251E40E941F028E
:1041F000DC01CB018E01055B1F4FBC01CD010E948C
:104200004900DC01CB01F801918380831FC0FE01CE
:10421000E75BFF4F80E991E091838083FE01E75BDC
:10422000FF4F808191810197F1F7FE01E75BFF4F1E
:1042300091838083DE01A55BBF4FFE01E55BFF4FED
:1042400080819181019711969C938E93FE01E55B8D
:10425000FF4F808191810097D1F627C08E01055BC9
:104260001F4FFE01E35BFF4F60817181828193816B
:104270000E944900DC01CB01F80191838083DE01BB
:10428000A95BBF4FFE01E55BFF4F808191818D935C
:104290009C93FE01E95BFF4F808191810197F1F7CB
:1042A000FE01E95BFF4F91838083FE01ED59FF4FD3
:1042B0008081882F90E08071907095958795959575
:1042C00087959595879595958795982F80E063E0DC
:1042D000492F0E943816FE01ED59FF4F8081882F2B
:1042E00090E08072907095958795959587959595B6
:1042F00087959595879595958795982F80E064E0AB
:10430000492F0E943816FE01ED59FF4F8081882FFA
:1043100090E080749070082E892F000C881F990BF4
:10432000000C881F991F982F80E065E0492F0E949C
:104330003816FE01ED59FF4F8081982F991F99275C
:10434000991F80E066E0492F0E943816FE01ED5B60
:10435000FF4F80E090E0A0E8BFE380839183A283D9
:10436000B3838E01015C1F4FFE01ED5BFF4F608147
:1043700071818281938120E030E04AE755E40E9418
:104380001F02DC01CB01F80180839183A283B383F8
:10439000FE01FF96608171818281938120E030E08F
:1043A00040E85FE30E94250488232CF481E090E03C
:1043B0009EAF8DAF46C0FE01FF9660817181828104
:1043C000938120E03FEF4FE757E40E94C5031816A2
:1043D00064F5FE01ED5BFF4F608171818281938105
:1043E00020E030E040E251E40E941F02DC01CB01FA
:1043F000BC01CD010E944900DC01CB019EAF8DAF15
:104400000FC080E991E09CAF8BAF8BAD9CAD019765
:10441000F1F79CAF8BAF8DAD9EAD01979EAF8DAF89
:104420008DAD9EAD009769F716C0FE01FF966081C5
:104430007181828193810E944900DC01CB019EAF92
:104440008DAF8DAD9EAD9AAF89AF89AD9AAD019715
:10445000F1F79AAF89AF80E062E041E00E94381640
:1044600080E090E0A0E8BFE38DAB9EABAFABB8AF10
:104470006DA97EA98FA998AD20E030E04AE755E408
:104480000E941F02DC01CB0189AB9AABABABBCAB8A
:1044900069A97AA98BA99CA920E030E040E85FE3F4
:1044A0000E94250488232CF481E090E098AB8FA72C
:1044B0003FC069A97AA98BA99CA920E03FEF4FE7EB
:1044C00057E40E94C50318164CF56DA97EA98FA963
:1044D00098AD20E030E040E251E40E941F02DC0190
:1044E000CB01BC01CD010E944900DC01CB0198AB9E
:1044F0008FA70FC080E991E09EA78DA78DA59EA5EF
:104500000197F1F79EA78DA78FA598A9019798AB62
:104510008FA78FA598A9009769F714C069A97AA9F0
:104520008BA99CA90E944900DC01CB0198AB8FA705
:104530008FA598A99CA78BA78BA59CA50197F1F7A0
:104540009CA78BA780E062E040E00E94381680E0E4
:1045500090E0A0E8BFE38FA398A7A9A7BAA76FA18F
:1045600078A589A59AA520E030E04AE755E40E94A5
:104570001F02DC01CB018BA39CA3ADA3BEA36BA147
:104580007CA18DA19EA120E030E040E85FE30E9485
:10459000250488232CF481E090E09AA389A33FC0EE
:1045A0006BA17CA18DA19EA120E03FEF4FE757E4D6
:1045B0000E94C50318164CF56FA178A589A59AA588
:1045C00020E030E040E251E40E941F02DC01CB0118
:1045D000BC01CD010E944900DC01CB019AA389A353
:1045E0000FC080E991E098A38F8F8F8D98A10197DC
:1045F000F1F798A38F8F89A19AA101979AA389A314
:1046000089A19AA1009769F714C06BA17CA18DA123
:104610009EA10E944900DC01CB019AA389A389A134
:104620009AA19E8F8D8F8D8D9E8D0197F1F79E8F14
:104630008D8FFE01ED59FF4F8081982F917080E0A2
:1046400063E0492F0E943816FE01ED59FF4F80812B
:10465000882F90E08270907095958795982F80E0D4
:1046600064E0492F0E943816FE01ED59FF4F80810A
:10467000882F90E084709070959587959595879593
:10468000982F80E065E0492F0E943816FE01ED5911
:10469000FF4F8081882F90E0887090709595879566
:1046A0009595879595958795982F80E066E0492F99
:1046B0000E94381680E090E0A0E8BFE3898F9A8FCF
:1046C000AB8FBC8F698D7A8D8B8D9C8D20E030E017
:1046D0004AE755E40E941F02DC01CB018D8B9E8BC3
:1046E000AF8BB88F6D897E898F89988D20E030E0FF
:1046F00040E85FE30E94250488232CF481E090E0E9
:104700009C8B8B8B3FC06D897E898F89988D20E033
:104710003FEF4FE757E40E94C50318164CF5698D2B
:104720007A8D8B8D9C8D20E030E040E251E40E9438
:104730001F02DC01CB01BC01CD010E944900DC015C
:10474000CB019C8B8B8B0FC080E991E09A8B898B7E
:1047500089899A890197F1F79A8B898B8B899C8932
:1047600001979C8B8B8B8B899C89009769F714C070
:104770006D897E898F89988D0E944900DC01CB016B
:104780009C8B8B8B8B899C89988B8F878F85988945
:104790000197F1F7988B8F8780E062E041E00E94FB
:1047A000381680E090E0A0E8BFE38B879C87AD8758
:1047B000BE876B857C858D859E8520E030E04AE74D
:1047C00055E40E941F02DC01CB018F839887A987E3
:1047D000BA876F81788589859A8520E030E040E846
:1047E0005FE30E94250488232CF481E090E09E83FF
:1047F0008D833FC06F81788589859A8520E03FEF62
:104800004FE757E40E94C50318164CF56B857C856D
:104810008D859E8520E030E040E251E40E941F0239
:10482000DC01CB01BC01CD010E944900DC01CB01C0
:104830009E838D830FC080E991E09C838B838B8165
:104840009C810197F1F79C838B838D819E810197D9
:104850009E838D838D819E81009769F714C06F813F
:10486000788589859A850E944900DC01CB019E8369
:104870008D838D819E819A83898389819A81019715
:10488000F1F79A838983CD59DF4F0FB6F894DEBFD5
:104890000FBECDBFCF91DF911F910F910895DF9390
:1048A000CF9300D00F92CDB7DEB79B838A83198256
:1048B0000EC08981282F30E08A819B81FC01E20FA4
:1048C000F31F80810E94D41F89818F5F8983898132
:1048D000282F30E08A819B81FC01E20FF31F808149
:1048E000882339F70F900F900F90CF91DF910895A3
:1048F000DF93CF9300D000D00F92CDB7DEB78A837D
:104900006B838A81282F30E03D832C838C819D81AD
:1049100081309105C1F02C813D81223031052CF48C
:104920008C819D81009761F019C02C813D812230DE
:10493000310569F08C819D818330910561F00EC055
:104940008B8189830BC08B81805C898307C08B81BD
:10495000805F898303C08B81805B898389818068C4
:104960000E94591B0F900F900F900F900F90CF91B6
:10497000DF910895DF93CF9300D000D0CDB7DEB79D
:1049800089836A835C834B8389816A810E9478244E
:104990008B819C810E944F240F900F900F900F905D
:1049A000CF91DF910895DF93CF93CDB7DEB76297B4
:1049B0000FB6F894DEBF0FBECDBF9A8B898B898965
:1049C0009A899E012F5F3F4FB9014AE050E00E9453
:1049D0004E28CE0101960E944F2462960FB6F8949D
:1049E000DEBF0FBECDBFCF91DF910895DF93CF9390
:1049F000CDB7DEB781E00E94591BCF91DF910895BA
:104A0000DF93CF93CDB7DEB7A5E4B0E0E5E4F0E007
:104A1000808188608C93A5E4B0E0E5E4F0E08081DB
:104A200087608C93E3E4F0E087E28083A9E5B0E05F
:104A3000E9E5F0E0808180688C93CF91DF91089563
:104A40001F920F920FB60F921124CF92DF92EF9226
:104A5000FF920F931F932F933F934F935F936F9307
:104A60007F938F939F93AF93BF93EF93FF93DF93C6
:104A7000CF93CDB7DEB72A97DEBFCDBF2091B2016D
:104A80003091B3014091B4015091B501E090B6016D
:104A9000F090B7010091B8011091B9018AEC92E051
:104AA000DE011596BA01A90198018701FE01319630
:104AB0007F016D010E94A60A89819A81AB81BC8128
:104AC000BC01CD0120E030E040E050E00E94F50361
:104AD00088231CF081E08A8702C082E08A8789816E
:104AE0009A81AB81BC81BF77BC01CD010E94490096
:104AF000DC01CB01982F8A85692F0E9430198D81A6
:104B00009E81AF81B885BC01CD0120E030E040E05E
:104B100050E00E94F50388231CF081E0898702C0E1
:104B200082E089878D819E81AF81B885BF77BC0186
:104B3000CD010E944900DC01CB01982F8985692FA6
:104B40000E94CC182A96DEBFCDBFCF91DF91FF9196
:104B5000EF91BF91AF919F918F917F916F915F91F5
:104B60004F913F912F911F910F91FF90EF90DF9008
:104B7000CF900F900FBE0F901F9018958F929F921D
:104B8000AF92BF92CF92DF92EF92FF920F931F935B
:104B9000DF93CF93CDB7DEB766970FB6F894DEBF3D
:104BA0000FBECDBF8DB79EB708970FB6F8949EBFC6
:104BB0000FBE8DBFEDB7FEB731962AEC32E080E034
:104BC00090E0A8ECB2EC80839183A283B38380E071
:104BD00090E0A8ECB2E484839583A683B783C901EF
:104BE00043E353E363E37FE30DEC1CEC2CE43DE390
:104BF0000F2EFAE0CF2EF7EDDF2EF3E2EF2EFCE3DF
:104C0000FF2EF02D0F2EFAE08F2EF7ED9F2EF3EAF8
:104C1000AF2EFCE3BF2EF02D0E94FC068DB79EB791
:104C200008960FB6F8949EBF0FBE8DBF8DB79EB786
:104C300008970FB6F8949EBF0FBE8DBFEDB7FEB7B5
:104C400031962AEE32E080E090E0A8ECB2EC80836E
:104C50009183A283B38380E090E0A8ECB2E48483E4
:104C60009583A683B783C90140E050E060E070E41B
:104C700009E21CE52FE83DE30F2EFAE0CF2EF7ED19
:104C8000DF2EF3E2EF2EFDE3FF2EF02D0F2EFAE0E4
:104C90008F2EF7ED9F2EF3EAAF2EFCE3BF2EF02D03
:104CA0000E94FC068DB79EB708960FB6F8949EBF7B
:104CB0000FBE8DBF0E94A71A0E9494190E94A219CC
:104CC0000E94B0190E948D180E94CF140E942315D3
:104CD0000E94F9140E94002578940E948D181E8A63
:104CE0001EC01D8A16C08E89482F50E08D89282F3E
:104CF00030E0CA0182959295907F9827807F98270F
:104D0000820F931FFC01E65FFA4F10828D898F5F3F
:104D10008D8B8D89803138F38E898F5F8E8B8E8954
:104D20008031F8F21092AC011092AB011092AE01FA
:104D30001092AD011092AF010E947C0C0E94340BC6
:104D40008C8B8C89882311F00E947C0C0E94D10DE1
:104D50008B8B8B890E94630E8091AF01882F90E02E
:104D6000880F991FFC01EE56FE4F20813181809102
:104D7000AB019091AC01820F931F9A8B898B80912C
:104D8000AF01882F90E0880F991FFC01E656FE4F77
:104D9000208131818091AD019091AE01820F931FEE
:104DA000988B8F8789899A8999231CF189899A8997
:104DB00080319105F4F48F8598899923D4F08F85FB
:104DC000988980319105ACF489899A892F85388931
:104DD00082959295907F9827807F9827820F931FC6
:104DE000FC01E65FFA4F8081882319F40E94F70FD7
:104DF00004C00E94340B0E947C0C8091AB01909106
:104E0000AC018730910541F08091AB019091AC01EC
:104E10008830910509F092CF8091AD019091AE015B
:104E20008730910541F08091AD019091AE018830BD
:104E3000910509F083CF8091AB019091AC01209155
:104E4000AD013091AE0182959295907F9827807F39
:104E50009827820F931FFC01E65FFA4F8081882319
:104E600009F06CCF8091AB019091AC012091AD0124
:104E70003091AE01B9010E94561181E08093AA01E0
:104E800080E090E0AAEFB3E48B879C87AD87BE8774
:104E90006B857C858D859E8520E030E04AE755E472
:104EA0000E941F02DC01CB018F839887A987BA87F4
:104EB0006F81788589859A8520E030E040E85FE35E
:104EC0000E94250488232CF481E090E09E838D834A
:104ED0003FC06F81788589859A8520E03FEF4FE755
:104EE00057E40E94C50318164CF56B857C858D85AB
:104EF0009E8520E030E040E251E40E941F02DC0188
:104F0000CB01BC01CD010E944900DC01CB019E8395
:104F10008D830FC080E991E09C838B838B819C8182
:104F20000197F1F79C838B838D819E8101979E83EE
:104F30008D838D819E81009769F7A2CF6F817885DF
:104F400089859A850E944900DC01CB019E838D836F
:104F50008D819E819A83898389819A810197F1F756
:104F60009A8389838DCF97FB092E07260AD077FD78
:104F700004D027D006D000201AF4709561957F4F99
:104F80000895F6F7909581959F4F089597FB092E08
:104F900005260ED057FD04D028D00AD0001C38F4C6
:104FA00050954095309521953F4F4F4F5F4F089555
:104FB000F6F790958095709561957F4F8F4F9F4F35
:104FC0000895AA1BBB1B51E107C0AA1FBB1FA61750
:104FD000B70710F0A61BB70B881F991F5A95A9F7A2
:104FE00080959095BC01CD010895A1E21A2EAA1BCF
:104FF000BB1BFD010DC0AA1FBB1FEE1FFF1FA21789
:10500000B307E407F50720F0A21BB30BE40BF50B85
:10501000661F771F881F991F1A9469F7609570950E
:10502000809590959B01AC01BD01CF0108952F9211
:105030003F924F925F926F927F928F929F92AF9228
:10504000BF92CF92DF92EF92FF920F931F93CF9375
:10505000DF93CDB7DEB7CA1BDB0B0FB6F894DEBF0C
:105060000FBECDBF09942A88398848885F846E8432
:105070007D848C849B84AA84B984C884DF80EE807C
:10508000FD800C811B81AA81B981CE0FD11D0FB685
:10509000F894DEBF0FBECDBFED010895FB019F0167
:1050A000E8944230C4F04532B4F44A3029F497FB16
:1050B0001EF4909581959F4F642F77270E94E127DA
:1050C000805D8A330CF0895D8193CB010097A1F755
:1050D00016F45DE251931082C9010C94932AAEE05C
:1050E000B0E0E5E7F8E20C9425280D891E898F8948
:1050F000988D97FF02C080E090E801979E838D8392
:105100001A83098386E08C839E01255E3F4FCE0182
:105110000196698D7A8DA9010E94A0284D815E813A
:1051200057FD0AC02F813885421753070CF49A01A6
:10513000020F131FF80110822E96E4E00C94412810
:10514000ABE0B0E0E6EAF8E20C9417283C012B0152
:105150005A01FC0117821682838181FD03C06FEF23
:105160007FEFC6C19AE0892E1E010894211C311CD4
:10517000F3012381F20123FD859123FF81912F010A
:10518000882309F4B2C1853239F423FD859123FFC8
:1051900081912F01853229F490E0B3010E94A32A66
:1051A000E7CF982FFF24EE249924FFE1FF15D0F0DC
:1051B0009B3269F09C3228F4903259F0933291F48A
:1051C0000EC09D3249F0903369F441E024C052E0B2
:1051D000F52A84E0F82A28C098E0F92A25C0E0E101
:1051E000FE2A22C0F7FC29C0892F80538A3070F430
:1051F000F6FE05C0989C902C1124980E15C0E89CD2
:10520000E02C1124E80EF0E2FF2A0EC09E3229F4B1
:10521000F6FC6BC140E4F42A07C09C3619F450E850
:10522000F52A02C0983649F4F20123FD959123FF37
:1052300091912F01992309F0B8CF892F855483309C
:1052400018F08052833038F444E050E0A40EB51ECC
:105250005FE359830FC0933631F0933779F093357C
:1052600009F056C020C0F5018081898342E050E0FA
:10527000A40EB51E610101E010E012C0F501C0806E
:10528000D180F6FC03C06FEF7FEF02C0692D70E0A4
:1052900042E050E0A40EB51EC6010E94882A8C018F
:1052A0005FE7F52214C0F501C080D180F6FC03C091
:1052B0006FEF7FEF02C0692D70E042E050E0A40E76
:1052C000B51EC6010E947D2A8C0150E8F52AF3FE26
:1052D00007C01AC080E290E0B3010E94A32AEA94BA
:1052E0008E2D90E008171907A8F30EC0F601F7FC01
:1052F0008591F7FE81916F0190E0B3010E94A32A8E
:10530000E110EA94015010400115110579F7EAC047
:10531000943611F0993669F5F7FE08C0F501208141
:1053200031814281538184E090E00AC0F50180819F
:1053300091819C01442737FD4095542F82E090E0F5
:10534000A80EB91E9FE6F92257FF09C05095409557
:10535000309521953F4F4F4F5F4FE0E8FE2ACA013D
:10536000B901A1012AE030E00E94CF2AD82ED2183C
:1053700040C0953729F41F2D1F7E2AE030E01DC064
:105380001F2D197F9F3661F0903720F4983509F072
:10539000ACC00FC0903739F0983709F0A6C004C0F0
:1053A00028E030E00AC0106114FD146020E130E014
:1053B00004C014FD166020E132E017FF08C0F501BB
:1053C000608171818281938144E050E008C0F501E1
:1053D00080819181BC0180E090E042E050E0A40E29
:1053E000B51EA1010E94CF2AD82ED2188FE7F82E21
:1053F000F122F6FE0BC05EEFF522D91438F4F4FE6C
:1054000007C0F2FC05C08FEEF82202C01D2D01C0BE
:10541000192DF4FE0DC0FE01ED0DF11D80818033CC
:1054200019F499EEF92208C01F5FF2FE05C003C00F
:105430008F2D867809F01F5F0F2DF3FC14C0F0FE4E
:105440000FC01E1510F09D2C0BC09D2C9E0C911AA8
:105450001E2D06C080E290E0B3010E94A32A1F5FC8
:105460001E15C0F304C01E1510F4E11A01C0EE248D
:1054700004FF0FC080E390E0B3010E94A32A02FF63
:105480001DC001FD03C088E790E00EC088E590E0F4
:105490000BC0802F867891F001FF02C08BE201C023
:1054A00080E2F7FC8DE290E0B3010E94A32A06C0DF
:1054B00080E390E0B3010E94A32A9A94D914C0F328
:1054C000DA94F101ED0DF11D808190E0B3010E94AD
:1054D000A32ADD20A9F706C080E290E0B3010E9474
:1054E000A32AEA94EE20C1F743CEF30166817781C7
:1054F000CB012B96E2E10C943328FC01059061501E
:1055000070400110D8F7809590958E0F9F1F0895D9
:10551000FC016150704001900110D8F78095909582
:105520008E0F9F1F0895DC01FC01672F7191772377
:10553000E1F7329704C07C916D9370836291AE174E
:10554000BF07C8F308950F931F93CF93DF938C0188
:10555000EB018B8181FF1BC082FF0DC02E813F813B
:105560008C819D812817390764F4E881F9810193C2
:10557000F983E88306C0E885F985802F0995892B92
:1055800031F48E819F8101969F838E8302C00FEF3D
:105590001FEFC801DF91CF911F910F910895FA017C
:1055A000AA27283051F1203181F1E8946F936E7F62
:1055B0006E5F7F4F8F4F9F4FAF4FB1E03ED0B4E053
:1055C0003CD0670F781F891F9A1FA11D680F791F94
:1055D0008A1F911DA11D6A0F711D811D911DA11DA5
:1055E00020D009F468943F912AE0269F11243019B5
:1055F000305D3193DEF6CF010895462F4770405D50
:105600004193B3E00FD0C9F7F6CF462F4F70405DFE
:105610004A3318F0495D31FD4052419302D0A9F759
:10562000EACFB4E0A6959795879577956795BA9553
:10563000C9F700976105710508959B01AC010A2E19
:1056400006945795479537952795BA95C9F7620FF0
:0E565000731F841F951FA01D0895F894FFCFAF
:10565E005245504C4159494E472E2E2E00583A2550
:10566E00326420593A25326420443A256400205091
:10567E0041544820444F4E452000000000000000D9
:10568E0000000001020203030303040404040404E3
:10569E0004040505050505050505050505050505AE
:1056AE00050506060606060606060606060606068E
:1056BE00060606060606060606060606060606067C
:1056CE00060607070707070707070707070707075E
:1056DE00070707070707070707070707070707074C
:1056EE00070707070707070707070707070707073C
:1056FE00070707070707070707070707070707072C
:10570E00070708080808080808080808080808080D
:10571E0008080808080808080808080808080808FB
:10572E0008080808080808080808080808080808EB
:10573E0008080808080808080808080808080808DB
:10574E0008080808080808080808080808080808CB
:10575E0008080808080808080808080808080808BB
:10576E0008080808080808080808080808080808AB
:10577E00080808080808080808080808080808089B
:10578E00080801000000FFFF00000000FFFF0000FE
:02579E00010008
:00000001FF
