:100000000C942A000C94BA040C9447000C944700FA
:100010000C9447000C9447000C9447000C94470044
:100020000C9447000C9447000C9447000C94470034
:100030000C9447000C9447000C9447000C94470024
:100040000C9447000C9447000C9447000C94470014
:100050000C94470011241FBECFE5D8E0DEBFCDBF12
:1000600010E0A0E6B0E0EAE9F1E102C005900D92EF
:10007000A037B107D9F712E0A0E7B0E001C01D92A8
:10008000A933B107E1F70E9465070C94CB080C94E3
:1000900000008F929F92AF92BF92CF92DF92EF9229
:1000A000FF920F931F93DF93CF93CDB7DEB72897BF
:1000B0000FB6F894DEBF0FBECDBF21E031E080E087
:1000C00090E04FEF0BC04193E217F307E1F7019681
:1000D0009F01285F3F4F8830910549F0FC01B3E054
:1000E000EE0FFF1FBA95E1F7E750FF4FECCF93E01B
:1000F00099839A8384E08B838C839D838E839F83F3
:10010000888740E050E0BE016F5F7F4F9E012B5F0C
:100110003F4FFB01E40FF51F8081F901E40FF51F4C
:100120009081E82FF0E0A3E0EE0FFF1FAA95E1F722
:10013000E90FF11DE750FF4F1082FA01E758FE4F1B
:100140008083FA01E754FF4F90834F5F5F4F443045
:100150005105F9F6CC24DD24F601E758FE4F9081D5
:10016000F601E754FF4F8081EE24FF24892E992465
:10017000A82EBB24840193E0000F111F9A95E1F78C
:100180000A0D1B1D07501F4FF701E05AFF4FA081BA
:10019000B181A80DB91DF701E859FF4F0190F08119
:1001A000E02DA830B10558F5B5016E0F7F1F77FD22
:1001B00026C0683071051CF59D0183E0220F331FB6
:1001C0008A95E1F7260F371FF901E75CFE4F808122
:1001D0008823A9F427503F4FF90180818F3F79F49C
:1001E000F80180818F5FF9018083FA01E758FE4FA3
:1001F000A083FA01E754FF4F60834F5F5F4F82E0B7
:1002000090E0E80EF91E98E0E916F10409F0BCCF81
:100210000894C11CD11CC416D50608F49DCF28969D
:100220000FB6F894DEBF0FBECDBFCF91DF911F9107
:100230000F91FF90EF90DF90CF90BF90AF909F9085
:100240008F900895FF920F931F93CF93DF93409168
:1002500076004E5F742F73704250C0917200D0913F
:10026000730000917400109175006FEFFF2450E04F
:1002700020E030E0F901E05AFF4F808191818C0F3E
:100280009D1FF901E859FF4F0190F081E02D883062
:10029000910500F5E00FF11FF7FD1CC0E830F105F6
:1002A000CCF4DC0193E0AA0FBB1F9A95E1F7AE0FE7
:1002B000BF1FFD01E75CFE4F8081882359F4A750E2
:1002C000BF4FEC91E61730F4571721F0452FFF246C
:1002D000F39401C0E62F5F5F2E5F3F4F543011F063
:1002E0006E2FC8CFFF2071F5E72FF0E0EE0FFF1F54
:1002F000DF01A05ABF4F8D919C918C0F9D1FE85933
:10030000FF4F0190F081E02D88309105D8F4E00F87
:10031000F11FF7FD17C0E830F105A4F4DC0113E08C
:10032000AA0FBB1F1A95E1F7AE0FBF1FFD01E75CD7
:10033000FE4F8081882331F4A750BF4F8C918F3FAF
:1003400009F0472F842FDF91CF911F910F91FF90DC
:1003500008952F923F924F925F926F927F928F9269
:100360009F92BF92CF92DF92EF92FF920F931F93D3
:10037000DF93CF93CDB7DEB7C250D1400FB6F8941C
:10038000DEBF0FBECDBFCF5FDE4F99838883C150E4
:10039000D1401B011092780010927700FC0133E0ED
:1003A000EE0FFF1F3A95E1F7E60FF71FE750FF4FFB
:1003B00080818F3F09F497C04E010894811C911CE5
:1003C00021E8C22ED12CCC0EDD1E24013601EE24F4
:1003D000FF2400E010E060E070E059C0BB2440E082
:1003E00050E0980193E0220F331F9A95E1F7260F12
:1003F000371F27503F4FFA01E05AFF4FA081B181CC
:10040000A00FB11FFA01E859FF4F0190F081E02DD4
:10041000A830B105A8F4E60FF71FF7FD11C0E830CA
:10042000F10574F483E0AA0FBB1F8A95E1F7AE0FC4
:10043000BF1FA750BF4F9C91D9018C91981738F0DE
:10044000B3944E5F5F4FB4E0BB16A9F62EC0EB2D00
:10045000F0E0EE0FFF1FDF01A05ABF4F8D919C917E
:10046000080F191FD2010D931D932D01E859FF4F5D
:1004700080819181680F791FF301619371933F012E
:10048000F701E754FE4FB0820894E11CF11CCF5FE6
:10049000DE4F88819981C150D1400817190709F0B2
:1004A0009DCF6215730509F099CFF0927800E09224
:1004B000770020E030E014C0F901E758FF4FD40185
:1004C0008C918083F901E750FE4FD6018C91808397
:1004D0002F5F3F4FE2E0F0E08E0E9F1ECE0EDF1E3C
:1004E0002E153F0548F3CE5FDE4F0FB6F894DEBF02
:1004F0000FBECDBFCF91DF911F910F91FF90EF9075
:10050000DF90CF90BF909F908F907F906F905F9083
:100510004F903F902F9008954F925F926F927F92ED
:100520008F929F92AF92BF92DF92EF92FF920F93C2
:100530001F93DF93CF93CDB7DEB7C050D1400FB636
:10054000F894DEBF0FBECDBF482F109278001092F6
:1005500077008091F9008F3F09F491C04E01089413
:10056000811C911C21E8A22EB12CAC0EBD1E242FA3
:10057000392FC9018C0124013501EE24FF2459C013
:10058000DD2440E050E0980193E0220F331F9A955C
:10059000E1F7260F371F27503F4FFA01E05AFF4F70
:1005A000A081B181A00FB11FFA01E859FF4F01905E
:1005B000F081E02DA830B105A8F4E60FF71FF7FD94
:1005C00011C0E830F10574F483E0AA0FBB1F8A95CF
:1005D000E1F7AE0FBF1FA750BF4F9C91D9018C917F
:1005E000981738F0D3944E5F5F4FB4E0DB16A9F64E
:1005F00028C0ED2DF0E0EE0FFF1FDF01A05ABF4F26
:100600008D919C91080F191FD2010D931D932D01FF
:10061000E859FF4F80819181680F791FF301619341
:1006200071933F01F701E754FE4FD0820894E11C1B
:10063000F11C0115110509F0A3CF6115710509F031
:100640009FCFF0927800E092770020E030E014C075
:10065000F901E758FF4FD4018C918083F901E750ED
:10066000FE4FD5018C9180832F5F3F4FE2E0F0E099
:100670008E0E9F1EAE0EBF1E2E153F0548F3C050B6
:10068000DF4F0FB6F894DEBF0FBECDBFCF91DF9125
:100690001F910F91FF90EF90DF90BF90AF909F90D0
:1006A0008F907F906F905F904F900895909176001B
:1006B00024E030E0291B3109A901480F511DCA016E
:1006C00064E070E00E94A408882309F49CC0813093
:1006D000B1F482E064E60E94060781E064E60E94CD
:1006E000220780E89CE020E931E0F9013197F1F739
:1006F0000197D9F78091760090E001966FC0833022
:10070000B1F481E064E60E94060782E064E60E949C
:10071000220780E89CE020E931E0F9013197F1F708
:100720000197D9F78091760090E0039657C08091A9
:100730007000882309F03CC081E064E60E9406074F
:1007400082E064E60E94220780E29CE120E931E039
:10075000F9013197F1F70197D9F78091760090E090
:100760000296837090708093760082E064E60E9427
:10077000220782E064E60E9406078EE194E120E908
:1007800031E0F9013197F1F70197D9F780E060E0A6
:100790000E94060780E060E00E94220780ED97E05B
:1007A00020E931E0F9013197F1F70197D9F71AC043
:1007B0008130C1F464E60E94060782E064E60E948C
:1007C000220780E29CE120E931E0F9013197F1F75D
:1007D0000197D9F78091760090E00296837090702F
:1007E0008093760080E060E00E94060780E060E091
:1007F0000E9422078CED95E020E931E0F901319764
:10080000F1F70197D9F70895EF92FF921F93CF93D5
:10081000DF93C0E0D0E040E9E42E41E0F42E0E94F6
:100820005807182F0E945E07112341F4813031F4DC
:1008300064E60E94220781E060E50DC0882329F468
:10084000113019F481E060E502C081E064E60E94A5
:10085000220781E064E60E9406078CE291E0F7013E
:100860003197F1F70197D9F76E9682E0CC31D8072E
:10087000B1F680E060E00E94060780E060E00E9440
:10088000220780ED97E020E931E0F9013197F1F797
:100890000197D9F7E0917600F0E0EE0FFF1FDF013E
:1008A000A05ABF4F80917200909173002D913C919E
:1008B000820F931F9093730080937200E859FF4F4B
:1008C000809174009091750020813181820F931F77
:1008D0009093750080937400DF91CF911F91FF90EA
:1008E000EF9008950F931F93CF93DF9388EB9BE0D6
:1008F00020E931E0F9013197F1F70197D9F788B391
:1009000092E0892788BB81E080937000F894C0E072
:10091000D0E000E911E010C0FE01E754FE4F8081F5
:100920000E9456030E94040480E293E0F80131978C
:10093000F1F70197D9F7219680917700909178008F
:10094000C817D90748F381E060E00E94060781E0FC
:1009500060E00E94220788E893E120E931E0F90194
:100960003197F1F70197D9F77894DF91CF911F91E3
:100970000F9108951F920F920FB60F9211242F938B
:100980003F934F935F936F937F938F939F93AF9317
:10099000BF93EF93FF9380917100882311F00E9421
:1009A0007204FF91EF91BF91AF919F918F917F91D1
:1009B0006F915F914F913F912F910F900FBE0F90CC
:1009C0001F9018952F923F924F925F926F927F9255
:1009D0008F929F92AF92BF92CF92DF92EF92FF924F
:1009E0000F931F93CF93DF93A09176002A2F30E0CF
:1009F000F9013396E370F070D9011196A370B070CD
:100A00002090720030907300EE0FFF1FCF01805ACC
:100A10009F4FEC01E880F9800091740010917500FF
:100A2000E859FF4FC080D180AA0FBB1FFD01E05ADB
:100A3000FF4FA080B180A859BF4F8D909C90D901E5
:100A4000AA0FBB1FFD01E05AFF4F60807180A859BB
:100A5000BF4F4D905C900E944807882311F1C70159
:100A6000820D931D97FD1DC088309105D4F4F601C9
:100A7000E00FF11FF7FD15C0E830F10594F4DC013B
:100A800073E0AA0FBB1F7A95E1F7AE0FBF1FA75CFB
:100A9000BE4F8C91813029F081E08C93FF24F39438
:100AA00001C0FF240E945207882309F1C501820D6D
:100AB000931D97FD1CC088309105CCF4D401A00F84
:100AC000B11FB7FD14C0A830B1058CF4FC0163E080
:100AD000EE0FFF1F6A95E1F7EA0FFB1FE75CFE4F81
:100AE0008081813021F081E08083FF24F3940E9493
:100AF0004C07882309F1C301820D931D97FD1CC08B
:100B000088309105CCF4D201A00FB11FB7FD14C0FD
:100B1000A830B1058CF4FC0153E0EE0FFF1F5A958D
:100B2000E1F7EA0FFB1FE75CFE4F8081813021F087
:100B300081E08083FF24F3948F2DDF91CF911F916B
:100B40000F91FF90EF90DF90CF90BF90AF909F906C
:100B50008F907F906F905F904F903F902F9008956F
:100B6000683008F070C0843008F06DC0813009F141
:100B7000813030F08230B1F1833009F064C04BC075
:100B8000413059F42AB381E090E002C0880F991FE8
:100B90006A95E2F7282B2ABB08952AB381E090E0FA
:100BA00002C0880F991F6A95E2F7809582238ABB5D
:100BB0000895413059F427B381E090E002C0880FD6
:100BC000991F6A95E2F7282B27BB089527B381E088
:100BD00090E002C0880F991F6A95E2F78095822302
:100BE00087BB0895413059F424B381E090E002C0FE
:100BF000880F991F6A95E2F7282B24BB089524B328
:100C000081E090E002C0880F991F6A95E2F7809515
:100C1000822384BB0895413059F421B381E090E0F0
:100C200002C0880F991F6A95E2F7282B21BB08950F
:100C300021B381E090E002C0880F991F6A95E2F726
:100C40008095822381BB0895683008F070C084309D
:100C500008F06DC0813009F1813030F08230B1F19F
:100C6000833009F064C04BC0413059F42BB381E0AC
:100C700090E002C0880F991F6A95E2F7282B2BBBE2
:100C800008952BB381E090E002C0880F991F6A9508
:100C9000E2F7809582238BBB0895413059F428B345
:100CA00081E090E002C0880F991F6A95E2F7282B37
:100CB00028BB089528B381E090E002C0880F991FF7
:100CC0006A95E2F78095822388BB0895413059F4F4
:100CD00025B381E090E002C0880F991F6A95E2F782
:100CE000282B25BB089525B381E090E002C0880F32
:100CF000991F6A95E2F78095822385BB089541305C
:100D000059F422B381E090E002C0880F991F6A95E0
:100D1000E2F7282B22BB089522B381E090E002C0C5
:100D2000880F991F6A95E2F78095822382BB089508
:100D30006830D0F48430C0F4813049F0813028F03C
:100D4000823039F0833081F406C089B305C086B3A0
:100D500003C083B301C080B390E002C0959587952E
:100D60006A95E2F78170089580E00895843080F4F8
:100D7000813049F0813028F0823039F0833041F4FD
:100D800006C06ABB089567BB089564BB089561BB44
:100D90000895843080F4813049F0813028F0823029
:100DA00039F0833041F406C06BBB089568BB0895E9
:100DB00065BB089562BB0895843088F4813049F0A2
:100DC000813028F0823039F0833049F406C089B38D
:100DD000089586B3089583B3089580B3089580E09D
:100DE000089581B3836081BB8C9A82B38C7F82BB70
:100DF00081B3806C81BB8D9A82B38F7382BB8FB5B8
:100E0000816A8FBD8EB58A608EBD0895813049F0AC
:100E1000813018F0823051F407C082B38C7F82BBDE
:100E200005C0909A919802C0919A90988FEF689F10
:100E3000C001112464E670E00E94A40870E079BD4E
:100E400068BD0895813049F0813018F0823051F446
:100E500007C082B38F7382BB05C0979A969802C071
:100E6000969A97988FEF689FC001112464E670E00E
:100E70000E94A40870E07BBD6ABD0895A098089503
:100E8000A2980895A7980895A4980895A3980895FE
:100E900083B380958170089583B3869586958095F8
:100EA0008170089583B38095881F8827881F0895CF
:100EB00083B382958F7080958170089583B38695F2
:100EC00086958695809581700895AF92BF92CF9256
:100ED000DF92EF92FF920F931F93CF93DF930E94C5
:100EE0003E070E9440070E9442070E94F1060E94AE
:100EF00044070E945E077894B99AC19821E431E0D2
:100F000080E090E00BC01192E217F307E1F7019641
:100F10009F01285F3F4F8830910549F0FC0143E075
:100F2000EE0FFF1F4A95E1F7E75CFE4FECCF109202
:100F3000730010927200109275001092740010925B
:100F400076000E94490010923901C0E9D1E00E9468
:100F5000E204882311F00E9449000E9422010E94AD
:100F60005603E0917600F0E0EE0FFF1FDF01A05A7C
:100F7000BF4F0D90BC91A02D809172009091730095
:100F8000A80FB91F8091740090917500E859FF4F28
:100F90000190F081E02DA830B105B0F4E80FF91F01
:100FA000F7FD12C0E830F1057CF413E0AA0FBB1F77
:100FB0001A95E1F7AE0FBF1FA75CBE4F8C91882337
:100FC00019F40E94040404C00E94E2040E94490033
:100FD00080EB94E0FE013197F1F70197D9F720916A
:100FE000720030917300C9010397029708F0AFCFE8
:100FF0006091740070917500CB010397029708F01F
:10100000A6CFF901A3E0EE0FFF1FAA95E1F7E60FC7
:10101000F71FE75CFE4F8081882309F098CFC90154
:101020000E94A9011092390121E031E080E090E0B6
:101030004FEF0BC04193E217F307E1F701969F01D1
:10104000285F3F4F8830910549F0FC0153E0EE0FD7
:10105000FF1F5A95E1F7E750FF4FECCF1092F900D0
:10106000109279011092B900EE24FF2401E010E003
:10107000F701E758FE4F9081F701E754FF4F808159
:101080000894E11CF11CC0E0D0E0A92EBB24C82EBE
:10109000DD24D50193E0AA0FBB1F9A95E1F7AC0DB3
:1010A000BD1DA750BF4FFE01E05AFF4F6081718107
:1010B0006A0D7B1DFE01E859FF4F0190F081E02D84
:1010C0006830710548F5A6014E0F5F1F57FD24C01B
:1010D000483051050CF59B0183E0220F331F8A95A0
:1010E000E1F7240F351FF901E75CFE4F808188236B
:1010F00099F4F901E750FF4F80818F3F69F48C919B
:101100008F5F8083F801E758FE4F6083F801E75452
:10111000FF4F40830F5F1F4F2296C830D10519F64D
:10112000E016F10608F4A4CF609174007091750088
:1011300080917200909173000E948C020E94720450
:1011400081E080937100FFCF97FB092E07260AD01C
:1011500077FD04D00CD006D000201AF4709561956C
:101160007F4F0895F6F7909581959F4F0895AA1B9C
:10117000BB1B51E107C0AA1FBB1FA617B70710F082
:10118000A61BB70B881F991F5A95A9F780959095B4
:0A119000BC01CD010895F894FFCFD3
:10119A0001000000FFFF00000000FFFF0000010047
:00000001FF
